{
  "contractName": "DAppContract",
  "abi": [
    {
      "inputs": [],
      "stateMutability": "nonpayable",
      "type": "constructor"
    },
    {
      "anonymous": false,
      "inputs": [],
      "name": "click",
      "type": "event"
    },
    {
      "inputs": [],
      "name": "tryInstance",
      "outputs": [
        {
          "internalType": "contract Try",
          "name": "",
          "type": "address"
        }
      ],
      "stateMutability": "view",
      "type": "function"
    },
    {
      "inputs": [],
      "name": "value",
      "outputs": [
        {
          "internalType": "uint256",
          "name": "",
          "type": "uint256"
        }
      ],
      "stateMutability": "view",
      "type": "function"
    },
    {
      "inputs": [],
      "name": "pressClick",
      "outputs": [],
      "stateMutability": "nonpayable",
      "type": "function"
    }
  ],
  "bytecode": "0x608060405234801561001057600080fd5b50602a60008190555060405161002590610087565b604051809103906000f080158015610041573d6000803e3d6000fd5b50600160006101000a81548173ffffffffffffffffffffffffffffffffffffffff021916908373ffffffffffffffffffffffffffffffffffffffff160217905550610094565b6175e48061028d83390190565b6101ea806100a36000396000f3fe608060405234801561001057600080fd5b50600436106100415760003560e01c80633ea580de146100465780633fa4f24514610064578063fcd85cf014610082575b600080fd5b61004e61008c565b60405161005b9190610165565b60405180910390f35b61006c6100b2565b6040516100799190610199565b60405180910390f35b61008a6100b8565b005b600160009054906101000a900473ffffffffffffffffffffffffffffffffffffffff1681565b60005481565b7f7d55923d6614dd1bb0e0f31c0d68411fadec9357b52118ad41a43144861669e260405160405180910390a1565b600073ffffffffffffffffffffffffffffffffffffffff82169050919050565b6000819050919050565b600061012b610126610121846100e6565b610106565b6100e6565b9050919050565b600061013d82610110565b9050919050565b600061014f82610132565b9050919050565b61015f81610144565b82525050565b600060208201905061017a6000830184610156565b92915050565b6000819050919050565b61019381610180565b82525050565b60006020820190506101ae600083018461018a565b9291505056fea264697066735822122017a2e80ee585c4c6c58022fd506639afa3c4ee8171941cabe938eea77e864fb764736f6c634300080d003360806040526008600055666a94d74f4300006002556000600c556000601660006101000a81548160ff0219169083151502179055506001601660026101000a81548160ff02191690831515021790555033601660036101000a81548173ffffffffffffffffffffffffffffffffffffffff021916908373ffffffffffffffffffffffffffffffffffffffff1602179055506040516200009e90620001e4565b604051809103906000f080158015620000bb573d6000803e3d6000fd5b50601860006101000a81548173ffffffffffffffffffffffffffffffffffffffff021916908373ffffffffffffffffffffffffffffffffffffffff16021790555060005b60078111620001dd57601860009054906101000a900473ffffffffffffffffffffffffffffffffffffffff1673ffffffffffffffffffffffffffffffffffffffff166312dc1fb3826040518263ffffffff1660e01b81526004016200016591906200020d565b6020604051808303816000875af115801562000185573d6000803e3d6000fd5b505050506040513d601f19601f82011682018060405250810190620001ab919062000260565b60048260088110620001c257620001c162000292565b5b01819055508080620001d490620002f0565b915050620000ff565b506200033d565b61372a8062003eba83390190565b6000819050919050565b6200020781620001f2565b82525050565b6000602082019050620002246000830184620001fc565b92915050565b600080fd5b6200023a81620001f2565b81146200024657600080fd5b50565b6000815190506200025a816200022f565b92915050565b6000602082840312156200027957620002786200022a565b5b6000620002898482850162000249565b91505092915050565b7f4e487b7100000000000000000000000000000000000000000000000000000000600052603260045260246000fd5b7f4e487b7100000000000000000000000000000000000000000000000000000000600052601160045260246000fd5b6000620002fd82620001f2565b91507fffffffffffffffffffffffffffffffffffffffffffffffffffffffffffffffff8203620003325762000331620002c1565b5b600182019050919050565b613b6d806200034d6000396000f3fe6080604052600436106101355760003560e01c8063590e1ae3116100ab578063a8bd56341161006f578063a8bd563414610418578063a932492f14610434578063d8f56ddb1461045f578063d91c98d31461049c578063e278fe6f146104c7578063eccb3a4f146104e557610135565b8063590e1ae3146103505780635a2ee0191461036e5780636fd0981614610399578063a035b1fe146103b0578063a2fb1175146103db57610135565b80633613a9f4116100fd5780633613a9f4146102115780633d9ca7a91461024e5780634615102c146102795780634e2786fb146102b65780634f989520146102e157806350b447121461030c57610135565b8063075461721461013a5780630b3cbd751461016557806311f0281e1461019057806322f3e2d4146101bb5780632777724b146101e6575b600080fd5b34801561014657600080fd5b5061014f610522565b60405161015c91906129d2565b60405180910390f35b34801561017157600080fd5b5061017a610548565b6040516101879190612a06565b60405180910390f35b34801561019c57600080fd5b506101a561054e565b6040516101b29190612a3c565b60405180910390f35b3480156101c757600080fd5b506101d0610561565b6040516101dd9190612a3c565b60405180910390f35b3480156101f257600080fd5b506101fb610574565b6040516102089190612a3c565b60405180910390f35b34801561021d57600080fd5b5061023860048036038101906102339190612a92565b610587565b6040516102459190612a06565b60405180910390f35b34801561025a57600080fd5b506102636105ab565b6040516102709190612a06565b60405180910390f35b34801561028557600080fd5b506102a0600480360381019061029b9190612a92565b6105b1565b6040516102ad9190612a3c565b60405180910390f35b3480156102c257600080fd5b506102cb610762565b6040516102d89190612a06565b60405180910390f35b3480156102ed57600080fd5b506102f6610768565b6040516103039190612ae0565b60405180910390f35b34801561031857600080fd5b50610333600480360381019061032e9190612a92565b61078e565b604051610347989796959493929190612afb565b60405180910390f35b610358610806565b6040516103659190612a3c565b60405180910390f35b34801561037a57600080fd5b506103836108e0565b6040516103909190612a06565b60405180910390f35b3480156103a557600080fd5b506103ae6108e6565b005b3480156103bc57600080fd5b506103c56109bf565b6040516103d29190612a06565b60405180910390f35b3480156103e757600080fd5b5061040260048036038101906103fd9190612a92565b6109c5565b60405161040f9190612ae0565b60405180910390f35b610432600480360381019061042d9190612cc0565b610a04565b005b34801561044057600080fd5b50610449610f12565b6040516104569190612a06565b60405180910390f35b34801561046b57600080fd5b5061048660048036038101906104819190612a92565b610f18565b6040516104939190612a06565b60405180910390f35b3480156104a857600080fd5b506104b1610f33565b6040516104be9190612a06565b60405180910390f35b6104cf610f39565b6040516104dc9190612a3c565b60405180910390f35b3480156104f157600080fd5b5061050c60048036038101906105079190612a92565b611162565b6040516105199190612a06565b60405180910390f35b601860009054906101000a900473ffffffffffffffffffffffffffffffffffffffff1681565b60155481565b601660009054906101000a900460ff1681565b601660029054906101000a900460ff1681565b601660019054906101000a900460ff1681565b6013818154811061059757600080fd5b906000526020600020016000915090505481565b60145481565b6000601660029054906101000a900460ff166105cc57600080fd5b601660009054906101000a900460ff161561061c576040517f08c379a000000000000000000000000000000000000000000000000000000000815260040161061390612d4a565b60405180910390fd5b3373ffffffffffffffffffffffffffffffffffffffff16601660039054906101000a900473ffffffffffffffffffffffffffffffffffffffff1673ffffffffffffffffffffffffffffffffffffffff16146106ac576040517f08c379a00000000000000000000000000000000000000000000000000000000081526004016106a390612ddc565b60405180910390fd5b601960006106ba9190612847565b6000601581905550816001819055506001600c60008282546106dc9190612e2b565b92505081905550436003819055506000601660016101000a81548160ff0219169083151502179055506001601660006101000a81548160ff0219169083151502179055507f33a701182892fd888ed152ca2ac23771a32e814469b7cd255965471e1af3a659600c546040516107519190612a06565b60405180910390a160019050919050565b600c5481565b601660039054906101000a900473ffffffffffffffffffffffffffffffffffffffff1681565b6019818154811061079e57600080fd5b90600052602060002090600802016000915090508060000160009054906101000a900473ffffffffffffffffffffffffffffffffffffffff16908060010154908060020154908060030154908060040154908060050154908060060154908060070154905088565b6000601660029054906101000a900460ff1661082157600080fd5b60005b6019805490508110156108d85760006019828154811061084757610846612e81565b5b906000526020600020906008020160000160009054906101000a900473ffffffffffffffffffffffffffffffffffffffff1690508073ffffffffffffffffffffffffffffffffffffffff166108fc6002549081150290604051600060405180830381858888f193505050501580156108c3573d6000803e3d6000fd5b505080806108d090612eb0565b915050610824565b506001905090565b60015481565b601660039054906101000a900473ffffffffffffffffffffffffffffffffffffffff1673ffffffffffffffffffffffffffffffffffffffff163373ffffffffffffffffffffffffffffffffffffffff1614610976576040517f08c379a000000000000000000000000000000000000000000000000000000000815260040161096d90612f6a565b60405180910390fd5b6000601660026101000a81548160ff0219169083151502179055507ffc2b180437972a94a98d643b705025c6263c595cce057cc3d910384b8d1d210c60405160405180910390a1565b60025481565b601781815481106109d557600080fd5b906000526020600020016000915054906101000a900473ffffffffffffffffffffffffffffffffffffffff1681565b601660029054906101000a900460ff16610a1d57600080fd5b60005a9050601660009054906101000a900460ff16610a71576040517f08c379a0000000000000000000000000000000000000000000000000000000008152600401610a6890612fd6565b60405180910390fd5b601660039054906101000a900473ffffffffffffffffffffffffffffffffffffffff1673ffffffffffffffffffffffffffffffffffffffff163373ffffffffffffffffffffffffffffffffffffffff1603610b01576040517f08c379a0000000000000000000000000000000000000000000000000000000008152600401610af890613068565b60405180910390fd5b6002543414610b45576040517f08c379a0000000000000000000000000000000000000000000000000000000008152600401610b3c906130d4565b60405180910390fd5b610b595a82610b5491906130f4565b61117d565b60006001905060005a925060005b60016006610b7591906130f4565b811015610c84576001858260068110610b9157610b90612e81565b5b60200201511080610bb957506045858260068110610bb257610bb1612e81565b5b6020020151115b15610bc75760009250610c84565b6000600182610bd69190612e2b565b90505b60016006610be791906130f4565b811015610c4357858160068110610c0157610c00612e81565b5b6020020151868360068110610c1957610c18612e81565b5b602002015103610c30576000935060019250610c43565b8080610c3b90612eb0565b915050610bd9565b50600115158215150315610c8457610c71858260068110610c6757610c66612e81565b5b602002015161117d565b8080610c7c90612eb0565b915050610b67565b50600184600560068110610c9b57610c9a612e81565b5b60200201511080610cc45750601a84600560068110610cbd57610cbc612e81565b5b6020020151115b15610cce57600091505b610ce25a84610cdd91906130f4565b61117d565b5a925081610d25576040517f08c379a0000000000000000000000000000000000000000000000000000000008152600401610d1c90613174565b60405180910390fd5b60006040518061010001604052803373ffffffffffffffffffffffffffffffffffffffff16815260200186600060068110610d6357610d62612e81565b5b6020020151815260200186600160068110610d8157610d80612e81565b5b6020020151815260200186600260068110610d9f57610d9e612e81565b5b6020020151815260200186600360068110610dbd57610dbc612e81565b5b6020020151815260200186600460068110610ddb57610dda612e81565b5b6020020151815260200186600560068110610df957610df8612e81565b5b60200201518152602001600c548152509050601981908060018154018082558091505060019003906000526020600020906008020160009091909190915060008201518160000160006101000a81548173ffffffffffffffffffffffffffffffffffffffff021916908373ffffffffffffffffffffffffffffffffffffffff1602179055506020820151816001015560408201518160020155606082015181600301556080820151816004015560a0820151816005015560c0820151816006015560e0820151816007015550506019805490506015819055507f4c1df353767031c6614945e337c52b5470e4458cb550ee289d55ee0c5189b64a3386604051610f0392919061323f565b60405180910390a15050505050565b60005481565b600d8160068110610f2857600080fd5b016000915090505481565b60035481565b6000601660029054906101000a900460ff16610f5457600080fd5b601660009054906101000a900460ff16610fa3576040517f08c379a0000000000000000000000000000000000000000000000000000000008152600401610f9a906132b4565b60405180910390fd5b3373ffffffffffffffffffffffffffffffffffffffff16601660039054906101000a900473ffffffffffffffffffffffffffffffffffffffff1673ffffffffffffffffffffffffffffffffffffffff1614611033576040517f08c379a000000000000000000000000000000000000000000000000000000000815260040161102a90613346565b60405180910390fd5b600d6000611041919061286b565b6017600061104f919061287e565b6013600061105d919061289f565b6000601660006101000a81548160ff0219169083151502179055506001546003546110889190612e2b565b43101561109d57611097610806565b50611119565b601660039054906101000a900473ffffffffffffffffffffffffffffffffffffffff1673ffffffffffffffffffffffffffffffffffffffff166108fc479081150290604051600060405180830381858888f19350505050158015611105573d6000803e3d6000fd5b5061110e611216565b506111176114bf565b505b7fc98436510a0eda5c78a091f07b3c1e4033a2d5c7714e58c06fd017e9541a9cf6600d6017601360145460405161115394939291906135e4565b60405180910390a16001905090565b6004816008811061117257600080fd5b016000915090505481565b611213816040516024016111919190612a06565b6040516020818303038152906040527ff5b1bba9000000000000000000000000000000000000000000000000000000007bffffffffffffffffffffffffffffffffffffffffffffffffffffffff19166020820180517bffffffffffffffffffffffffffffffffffffffffffffffffffffffff83818316178352505050506125db565b50565b6000601660029054906101000a900460ff1661123157600080fd5b601660009054906101000a900460ff1615611281576040517f08c379a0000000000000000000000000000000000000000000000000000000008152600401611278906136ab565b60405180910390fd5b600060019050801561133a576001600d6000600681106112a4576112a3612e81565b5b01819055506002600d6001600681106112c0576112bf612e81565b5b01819055506003600d6002600681106112dc576112db612e81565b5b01819055506004600d6003600681106112f8576112f7612e81565b5b01819055506005600d60046006811061131457611313612e81565b5b01819055506006600d6005600681106113305761132f612e81565b5b01819055506114b7565b60008054436113499190612e2b565b444260405160200161135d939291906136cb565b6040516020818303038152906040528051906020012060001c905060005b60058110156114265760016045600054436113969190612e2b565b4442866040516020016113ac9493929190613702565b6040516020818303038152906040528051906020012060001c6113cf9190613776565b6113d99190612e2b565b915081600d82600681106113f0576113ef612e81565b5b0181905550611413600d826006811061140c5761140b612e81565b5b015461117d565b808061141e90612eb0565b91505061137b565b506001601d600054436114399190612e2b565b44428560405160200161144f9493929190613702565b6040516020818303038152906040528051906020012060001c6114729190613776565b61147c9190612e2b565b600d60056006811061149157611490612e81565b5b01819055506114b5600d6005600681106114ae576114ad612e81565b5b015461117d565b505b600191505090565b6000601660029054906101000a900460ff166114da57600080fd5b601660009054906101000a900460ff161561152a576040517f08c379a0000000000000000000000000000000000000000000000000000000008152600401611521906137f3565b60405180910390fd5b601660019054906101000a900460ff161561157a576040517f08c379a00000000000000000000000000000000000000000000000000000000081526004016115719061385f565b60405180910390fd5b60005b6019805490508110156125ac5760008060005b600581101561170d57601984815481106115ad576115ac612e81565b5b906000526020600020906008020160010154600d82600681106115d3576115d2612e81565b5b0154148061161a5750601984815481106115f0576115ef612e81565b5b906000526020600020906008020160020154600d826006811061161657611615612e81565b5b0154145b8061165e57506019848154811061163457611633612e81565b5b906000526020600020906008020160030154600d826006811061165a57611659612e81565b5b0154145b806116a257506019848154811061167857611677612e81565b5b906000526020600020906008020160040154600d826006811061169e5761169d612e81565b5b0154145b806116e65750601984815481106116bc576116bb612e81565b5b906000526020600020906008020160050154600d82600681106116e2576116e1612e81565b5b0154145b156116fa5782806116f690612eb0565b9350505b808061170590612eb0565b915050611590565b50600d60056006811061172357611722612e81565b5b01546019848154811061173957611738612e81565b5b9060005260206000209060080201600601540361175557600190505b60006019848154811061176b5761176a612e81565b5b906000526020600020906008020160000160009054906101000a900473ffffffffffffffffffffffffffffffffffffffff1690506005831480156117ac5750815b1561194857601860009054906101000a900473ffffffffffffffffffffffffffffffffffffffff1673ffffffffffffffffffffffffffffffffffffffff16635795027f82600460006008811061180557611804612e81565b5b01546040518363ffffffff1660e01b815260040161182492919061387f565b6020604051808303816000875af1158015611843573d6000803e3d6000fd5b505050506040513d601f19601f8201168201806040525081019061186791906138d4565b50611889604051806060016040528060298152602001613a9460299139612604565b6118928161269d565b6017819080600181540180825580915050600190039060005260206000200160009091909190916101000a81548173ffffffffffffffffffffffffffffffffffffffff021916908373ffffffffffffffffffffffffffffffffffffffff1602179055506013600190806001815401808255809150506001900390600052602060002001600090919091909150556119296000612736565b600460006008811061193e5761193d612e81565b5b0181905550612558565b600583148015611956575081155b15611af257601860009054906101000a900473ffffffffffffffffffffffffffffffffffffffff1673ffffffffffffffffffffffffffffffffffffffff16635795027f8260046001600881106119af576119ae612e81565b5b01546040518363ffffffff1660e01b81526004016119ce92919061387f565b6020604051808303816000875af11580156119ed573d6000803e3d6000fd5b505050506040513d601f19601f82011682018060405250810190611a1191906138d4565b506017819080600181540180825580915050600190039060005260206000200160009091909190916101000a81548173ffffffffffffffffffffffffffffffffffffffff021916908373ffffffffffffffffffffffffffffffffffffffff160217905550601360029080600181540180825580915050600190039060005260206000200160009091909190915055611ac0604051806060016040528060298152602001613abd60299139612604565b611ac98161269d565b611ad36001612736565b6004600160088110611ae857611ae7612e81565b5b0181905550612557565b600483148015611aff5750815b15611c9b57601860009054906101000a900473ffffffffffffffffffffffffffffffffffffffff1673ffffffffffffffffffffffffffffffffffffffff16635795027f826004600260088110611b5857611b57612e81565b5b01546040518363ffffffff1660e01b8152600401611b7792919061387f565b6020604051808303816000875af1158015611b96573d6000803e3d6000fd5b505050506040513d601f19601f82011682018060405250810190611bba91906138d4565b506017819080600181540180825580915050600190039060005260206000200160009091909190916101000a81548173ffffffffffffffffffffffffffffffffffffffff021916908373ffffffffffffffffffffffffffffffffffffffff160217905550601360039080600181540180825580915050600190039060005260206000200160009091909190915055611c69604051806060016040528060298152602001613a4960299139612604565b611c728161269d565b611c7c6002612736565b6004600260088110611c9157611c90612e81565b5b0181905550612556565b600483148015611ca9575081155b80611cbd5750600383148015611cbc5750815b5b15611e5957601860009054906101000a900473ffffffffffffffffffffffffffffffffffffffff1673ffffffffffffffffffffffffffffffffffffffff16635795027f826004600360088110611d1657611d15612e81565b5b01546040518363ffffffff1660e01b8152600401611d3592919061387f565b6020604051808303816000875af1158015611d54573d6000803e3d6000fd5b505050506040513d601f19601f82011682018060405250810190611d7891906138d4565b506017819080600181540180825580915050600190039060005260206000200160009091909190916101000a81548173ffffffffffffffffffffffffffffffffffffffff021916908373ffffffffffffffffffffffffffffffffffffffff160217905550601360049080600181540180825580915050600190039060005260206000200160009091909190915055611e27604051806060016040528060298152602001613a4960299139612604565b611e308161269d565b611e3a6003612736565b6004600360088110611e4f57611e4e612e81565b5b0181905550612555565b600383148015611e67575081155b80611e7b5750600283148015611e7a5750815b5b1561201557601860009054906101000a900473ffffffffffffffffffffffffffffffffffffffff1673ffffffffffffffffffffffffffffffffffffffff16635795027f8260048060088110611ed357611ed2612e81565b5b01546040518363ffffffff1660e01b8152600401611ef292919061387f565b6020604051808303816000875af1158015611f11573d6000803e3d6000fd5b505050506040513d601f19601f82011682018060405250810190611f3591906138d4565b506017819080600181540180825580915050600190039060005260206000200160009091909190916101000a81548173ffffffffffffffffffffffffffffffffffffffff021916908373ffffffffffffffffffffffffffffffffffffffff160217905550601360059080600181540180825580915050600190039060005260206000200160009091909190915055611fe4604051806060016040528060298152602001613b0f60299139612604565b611fed8161269d565b611ff76004612736565b6004806008811061200b5761200a612e81565b5b0181905550612554565b600283148015612023575081155b8061203757506001831480156120365750815b5b156121d357601860009054906101000a900473ffffffffffffffffffffffffffffffffffffffff1673ffffffffffffffffffffffffffffffffffffffff16635795027f8260046005600881106120905761208f612e81565b5b01546040518363ffffffff1660e01b81526004016120af92919061387f565b6020604051808303816000875af11580156120ce573d6000803e3d6000fd5b505050506040513d601f19601f820116820180604052508101906120f291906138d4565b506017819080600181540180825580915050600190039060005260206000200160009091909190916101000a81548173ffffffffffffffffffffffffffffffffffffffff021916908373ffffffffffffffffffffffffffffffffffffffff1602179055506013600690806001815401808255809150506001900390600052602060002001600090919091909150556121a1604051806060016040528060298152602001613b0f60299139612604565b6121aa8161269d565b6121b46005612736565b60046005600881106121c9576121c8612e81565b5b0181905550612553565b6001831480156121e1575081155b1561237d57601860009054906101000a900473ffffffffffffffffffffffffffffffffffffffff1673ffffffffffffffffffffffffffffffffffffffff16635795027f82600460066008811061223a57612239612e81565b5b01546040518363ffffffff1660e01b815260040161225992919061387f565b6020604051808303816000875af1158015612278573d6000803e3d6000fd5b505050506040513d601f19601f8201168201806040525081019061229c91906138d4565b506017819080600181540180825580915050600190039060005260206000200160009091909190916101000a81548173ffffffffffffffffffffffffffffffffffffffff021916908373ffffffffffffffffffffffffffffffffffffffff16021790555060136007908060018154018082558091505060019003906000526020600020016000909190919091505561234b604051806060016040528060298152602001613ae660299139612604565b6123548161269d565b61235e6006612736565b600460066008811061237357612372612e81565b5b0181905550612552565b60008314801561238a5750815b1561252657601860009054906101000a900473ffffffffffffffffffffffffffffffffffffffff1673ffffffffffffffffffffffffffffffffffffffff16635795027f8260046007600881106123e3576123e2612e81565b5b01546040518363ffffffff1660e01b815260040161240292919061387f565b6020604051808303816000875af1158015612421573d6000803e3d6000fd5b505050506040513d601f19601f8201168201806040525081019061244591906138d4565b506017819080600181540180825580915050600190039060005260206000200160009091909190916101000a81548173ffffffffffffffffffffffffffffffffffffffff021916908373ffffffffffffffffffffffffffffffffffffffff1602179055506013600890806001815401808255809150506001900390600052602060002001600090919091909150556124f4604051806060016040528060298152602001613ae660299139612604565b6124fd8161269d565b6125076007612736565b600460076008811061251c5761251b612e81565b5b0181905550612551565b612547604051806060016040528060228152602001613a7260229139612604565b6125508161269d565b5b5b5b5b5b5b5b5b6125966040518060400160405280601781526020017f6f6e6520697465726174696f6e20636f6d706c65746564000000000000000000815250612604565b50505080806125a490612eb0565b91505061157d565b506017805490506014819055506001601660016101000a81548160ff0219169083151502179055506001905090565b60008151905060006a636f6e736f6c652e6c6f679050602083016000808483855afa5050505050565b61269a816040516024016126189190613978565b6040516020818303038152906040527f41304fac000000000000000000000000000000000000000000000000000000007bffffffffffffffffffffffffffffffffffffffffffffffffffffffff19166020820180517bffffffffffffffffffffffffffffffffffffffffffffffffffffffff83818316178352505050506125db565b50565b612733816040516024016126b19190612ae0565b6040516020818303038152906040527f2c2ecbc2000000000000000000000000000000000000000000000000000000007bffffffffffffffffffffffffffffffffffffffffffffffffffffffff19166020820180517bffffffffffffffffffffffffffffffffffffffffffffffffffffffff83818316178352505050506125db565b50565b6000601660029054906101000a900460ff1661275157600080fd5b81600011158015612763575060078211155b6127a2576040517f08c379a0000000000000000000000000000000000000000000000000000000008152600401612799906139e6565b60405180910390fd5b601860009054906101000a900473ffffffffffffffffffffffffffffffffffffffff1673ffffffffffffffffffffffffffffffffffffffff166312dc1fb3836040518263ffffffff1660e01b81526004016127fd9190612a06565b6020604051808303816000875af115801561281c573d6000803e3d6000fd5b505050506040513d601f19601f820116820180604052508101906128409190613a1b565b9050919050565b508054600082556008029060005260206000209081019061286891906128c0565b50565b50806006019061287b9190612936565b50565b508054600082559060005260206000209081019061289c9190612936565b50565b50805460008255906000526020600020908101906128bd9190612936565b50565b5b8082111561293257600080820160006101000a81549073ffffffffffffffffffffffffffffffffffffffff02191690556001820160009055600282016000905560038201600090556004820160009055600582016000905560068201600090556007820160009055506008016128c1565b5090565b5b8082111561294f576000816000905550600101612937565b5090565b600073ffffffffffffffffffffffffffffffffffffffff82169050919050565b6000819050919050565b600061299861299361298e84612953565b612973565b612953565b9050919050565b60006129aa8261297d565b9050919050565b60006129bc8261299f565b9050919050565b6129cc816129b1565b82525050565b60006020820190506129e760008301846129c3565b92915050565b6000819050919050565b612a00816129ed565b82525050565b6000602082019050612a1b60008301846129f7565b92915050565b60008115159050919050565b612a3681612a21565b82525050565b6000602082019050612a516000830184612a2d565b92915050565b6000604051905090565b600080fd5b612a6f816129ed565b8114612a7a57600080fd5b50565b600081359050612a8c81612a66565b92915050565b600060208284031215612aa857612aa7612a61565b5b6000612ab684828501612a7d565b91505092915050565b6000612aca82612953565b9050919050565b612ada81612abf565b82525050565b6000602082019050612af56000830184612ad1565b92915050565b600061010082019050612b11600083018b612ad1565b612b1e602083018a6129f7565b612b2b60408301896129f7565b612b3860608301886129f7565b612b4560808301876129f7565b612b5260a08301866129f7565b612b5f60c08301856129f7565b612b6c60e08301846129f7565b9998505050505050505050565b600080fd5b6000601f19601f8301169050919050565b7f4e487b7100000000000000000000000000000000000000000000000000000000600052604160045260246000fd5b612bc782612b7e565b810181811067ffffffffffffffff82111715612be657612be5612b8f565b5b80604052505050565b6000612bf9612a57565b9050612c058282612bbe565b919050565b600067ffffffffffffffff821115612c2557612c24612b8f565b5b602082029050919050565b600080fd5b6000612c48612c4384612c0a565b612bef565b90508060208402830185811115612c6257612c61612c30565b5b835b81811015612c8b5780612c778882612a7d565b845260208401935050602081019050612c64565b5050509392505050565b600082601f830112612caa57612ca9612b79565b5b6006612cb7848285612c35565b91505092915050565b600060c08284031215612cd657612cd5612a61565b5b6000612ce484828501612c95565b91505092915050565b600082825260208201905092915050565b7f4c6f747465727920616c7265616479206f70656e210000000000000000000000600082015250565b6000612d34601583612ced565b9150612d3f82612cfe565b602082019050919050565b60006020820190508181036000830152612d6381612d27565b9050919050565b7f4f6e6c7920746865206c6f7474657279206d616e616765722063616e2073746160008201527f72742061206e657720726f756e642e0000000000000000000000000000000000602082015250565b6000612dc6602f83612ced565b9150612dd182612d6a565b604082019050919050565b60006020820190508181036000830152612df581612db9565b9050919050565b7f4e487b7100000000000000000000000000000000000000000000000000000000600052601160045260246000fd5b6000612e36826129ed565b9150612e41836129ed565b9250827fffffffffffffffffffffffffffffffffffffffffffffffffffffffffffffffff03821115612e7657612e75612dfc565b5b828201905092915050565b7f4e487b7100000000000000000000000000000000000000000000000000000000600052603260045260246000fd5b6000612ebb826129ed565b91507fffffffffffffffffffffffffffffffffffffffffffffffffffffffffffffffff8203612eed57612eec612dfc565b5b600182019050919050565b7f4f6e6c7920746865206c6f7474657279206d616e616765722063616e20636c6f60008201527f73652074686520636f6e74726163742e00000000000000000000000000000000602082015250565b6000612f54603083612ced565b9150612f5f82612ef8565b604082019050919050565b60006020820190508181036000830152612f8381612f47565b9050919050565b7f4c6f747465727920636c6f736564000000000000000000000000000000000000600082015250565b6000612fc0600e83612ced565b9150612fcb82612f8a565b602082019050919050565b60006020820190508181036000830152612fef81612fb3565b9050919050565b7f4c6f7474657279206d616e616765722063616e6e6f7420706c61792c2073696760008201527f682e2e2e00000000000000000000000000000000000000000000000000000000602082015250565b6000613052602483612ced565b915061305d82612ff6565b604082019050919050565b6000602082019050818103600083015261308181613045565b9050919050565b7f4e6f7420656e6f756768206d6f6e657921000000000000000000000000000000600082015250565b60006130be601183612ced565b91506130c982613088565b602082019050919050565b600060208201905081810360008301526130ed816130b1565b9050919050565b60006130ff826129ed565b915061310a836129ed565b92508282101561311d5761311c612dfc565b5b828203905092915050565b7f45616368206e756d626572206d75737420626520756e69717565210000000000600082015250565b600061315e601b83612ced565b915061316982613128565b602082019050919050565b6000602082019050818103600083015261318d81613151565b9050919050565b600060069050919050565b600081905092915050565b6000819050919050565b6131bd816129ed565b82525050565b60006131cf83836131b4565b60208301905092915050565b6000602082019050919050565b6131f181613194565b6131fb818461319f565b9250613206826131aa565b8060005b8381101561323757815161321e87826131c3565b9650613229836131db565b92505060018101905061320a565b505050505050565b600060e0820190506132546000830185612ad1565b61326160208301846131e8565b9392505050565b7f4c6f747465727920616c726561647920636c6f73652100000000000000000000600082015250565b600061329e601683612ced565b91506132a982613268565b602082019050919050565b600060208201905081810360008301526132cd81613291565b9050919050565b7f4f6e6c7920746865206c6f7474657279206d616e616765722063616e20636c6f60008201527f7365206120726f756e642e000000000000000000000000000000000000000000602082015250565b6000613330602b83612ced565b915061333b826132d4565b604082019050919050565b6000602082019050818103600083015261335f81613323565b9050919050565b600060069050919050565b6000819050919050565b60008160001c9050919050565b6000819050919050565b60006133a56133a08361337b565b613388565b9050919050565b60006133b88254613392565b9050919050565b6000600182019050919050565b6133d581613366565b6133df818461319f565b92506133ea82613371565b8060005b83811015613422576133ff826133ac565b61340987826131c3565b9650613414836133bf565b9250506001810190506133ee565b505050505050565b600081549050919050565b600082825260208201905092915050565b60008190508160005260206000209050919050565b61346481612abf565b82525050565b6000613476838361345b565b60208301905092915050565b600073ffffffffffffffffffffffffffffffffffffffff82169050919050565b60006134b56134b08361337b565b613482565b9050919050565b60006134c882546134a2565b9050919050565b6000600182019050919050565b60006134e78261342a565b6134f18185613435565b93506134fc83613446565b8060005b8381101561353457613511826134bc565b61351b888261346a565b9750613526836134cf565b925050600181019050613500565b5085935050505092915050565b600081549050919050565b600082825260208201905092915050565b60008190508160005260206000209050919050565b6000600182019050919050565b600061358a82613541565b613594818561354c565b935061359f8361355d565b8060005b838110156135d7576135b4826133ac565b6135be88826131c3565b97506135c983613572565b9250506001810190506135a3565b5085935050505092915050565b6000610120820190506135fa60008301876133cc565b81810360c083015261360c81866134dc565b905081810360e0830152613620818561357f565b90506136306101008301846129f7565b95945050505050565b7f41206e6577206c6f747465727920726f756e642077696c6c207374617274207360008201527f6f6f6e2e2e2e0000000000000000000000000000000000000000000000000000602082015250565b6000613695602683612ced565b91506136a082613639565b604082019050919050565b600060208201905081810360008301526136c481613688565b9050919050565b60006060820190506136e060008301866129f7565b6136ed60208301856129f7565b6136fa60408301846129f7565b949350505050565b600060808201905061371760008301876129f7565b61372460208301866129f7565b61373160408301856129f7565b61373e60608301846129f7565b95945050505050565b7f4e487b7100000000000000000000000000000000000000000000000000000000600052601260045260246000fd5b6000613781826129ed565b915061378c836129ed565b92508261379c5761379b613747565b5b828206905092915050565b7f41206e657720726f756e642077696c6c20737461727420736f6f6e0000000000600082015250565b60006137dd601b83612ced565b91506137e8826137a7565b602082019050919050565b6000602082019050818103600083015261380c816137d0565b9050919050565b7f5072697a657320616c72656164792064697374726962757465642e0000000000600082015250565b6000613849601b83612ced565b915061385482613813565b602082019050919050565b600060208201905081810360008301526138788161383c565b9050919050565b60006040820190506138946000830185612ad1565b6138a160208301846129f7565b9392505050565b6138b181612a21565b81146138bc57600080fd5b50565b6000815190506138ce816138a8565b92915050565b6000602082840312156138ea576138e9612a61565b5b60006138f8848285016138bf565b91505092915050565b600081519050919050565b60005b8381101561392a57808201518184015260208101905061390f565b83811115613939576000848401525b50505050565b600061394a82613901565b6139548185612ced565b935061396481856020860161390c565b61396d81612b7e565b840191505092915050565b60006020820190508181036000830152613992818461393f565b905092915050565b7f496e646578206f7574206f6620626f756e64732e000000000000000000000000600082015250565b60006139d0601483612ced565b91506139db8261399a565b602082019050919050565b600060208201905081810360008301526139ff816139c3565b9050919050565b600081519050613a1581612a66565b92915050565b600060208284031215613a3157613a30612a61565b5b6000613a3f84828501613a06565b9150509291505056fe54686520666f6c6c6f77696e67206164647265737320776f6e2074686520337264207072697a653a2054686520666f6c6c6f77696e672061646472657373206469646e27742077696e3a2054686520666f6c6c6f77696e67206164647265737320776f6e2074686520317374207072697a653a2054686520666f6c6c6f77696e67206164647265737320776f6e2074686520326e64207072697a653a2054686520666f6c6c6f77696e67206164647265737320776f6e2074686520357468207072697a653a2054686520666f6c6c6f77696e67206164647265737320776f6e2074686520347468207072697a653a20a2646970667358221220d226e1b76299683716062002721a246776ba7770ce264b3b7464982dc9b8c6d264736f6c634300080d003360806040526040518061010001604052806040518060800160405280605a81526020016200356d605a913981526020016040518060800160405280605b8152602001620036cf605b913981526020016040518060800160405280605681526020016200362260569139815260200160405180608001604052806057815260200162003678605791398152602001604051806080016040528060558152602001620034c2605591398152602001604051806080016040528060568152602001620035176056913981526020016040518060800160405280605b8152602001620035c7605b913981526020016040518060800160405280605681526020016200346c605691398152506009906008620001189291906200020e565b503480156200012657600080fd5b506040518060400160405280600681526020017f6e65774e465400000000000000000000000000000000000000000000000000008152506040518060400160405280600381526020017f49544d00000000000000000000000000000000000000000000000000000000008152508160009080519060200190620001ab92919062000268565b508060019080519060200190620001c492919062000268565b50505033600860006101000a81548173ffffffffffffffffffffffffffffffffffffffff021916908373ffffffffffffffffffffffffffffffffffffffff160217905550620003ea565b826008810192821562000255579160200282015b82811115620002545782518290805190602001906200024392919062000268565b509160200191906001019062000222565b5b509050620002649190620002f9565b5090565b8280546200027690620003b5565b90600052602060002090601f0160209004810192826200029a5760008555620002e6565b82601f10620002b557805160ff1916838001178555620002e6565b82800160010185558215620002e6579182015b82811115620002e5578251825591602001919060010190620002c8565b5b509050620002f5919062000321565b5090565b5b808211156200031d576000818162000313919062000340565b50600101620002fa565b5090565b5b808211156200033c57600081600090555060010162000322565b5090565b5080546200034e90620003b5565b6000825580601f1062000362575062000383565b601f01602090049060005260206000209081019062000382919062000321565b5b50565b7f4e487b7100000000000000000000000000000000000000000000000000000000600052602260045260246000fd5b60006002820490506001821680620003ce57607f821691505b602082108103620003e457620003e362000386565b5b50919050565b61307280620003fa6000396000f3fe6080604052600436106100fe5760003560e01c80635795027f11610095578063a22cb46511610064578063a22cb46514610360578063b88d4fde14610389578063c87b56dd146103b2578063e985e9c5146103ef578063ec0aa9611461042c576100fe565b80635795027f1461028b5780636352211e146102bb57806370a08231146102f857806395d89b4114610335576100fe565b806312dc1fb3116100d157806312dc1fb3146101d157806323b872dd1461020e57806342842e0e14610237578063481c6a7514610260576100fe565b806301ffc9a71461010357806306fdde0314610140578063081812fc1461016b578063095ea7b3146101a8575b600080fd5b34801561010f57600080fd5b5061012a60048036038101906101259190611daf565b610469565b6040516101379190611df7565b60405180910390f35b34801561014c57600080fd5b5061015561054b565b6040516101629190611eab565b60405180910390f35b34801561017757600080fd5b50610192600480360381019061018d9190611f03565b6105dd565b60405161019f9190611f71565b60405180910390f35b3480156101b457600080fd5b506101cf60048036038101906101ca9190611fb8565b610662565b005b3480156101dd57600080fd5b506101f860048036038101906101f39190611f03565b610779565b6040516102059190612007565b60405180910390f35b34801561021a57600080fd5b5061023560048036038101906102309190612022565b610919565b005b34801561024357600080fd5b5061025e60048036038101906102599190612022565b610979565b005b34801561026c57600080fd5b50610275610999565b6040516102829190611f71565b60405180910390f35b6102a560048036038101906102a09190611fb8565b6109bf565b6040516102b29190611df7565b60405180910390f35b3480156102c757600080fd5b506102e260048036038101906102dd9190611f03565b610ac0565b6040516102ef9190611f71565b60405180910390f35b34801561030457600080fd5b5061031f600480360381019061031a9190612075565b610b71565b60405161032c9190612007565b60405180910390f35b34801561034157600080fd5b5061034a610c28565b6040516103579190611eab565b60405180910390f35b34801561036c57600080fd5b50610387600480360381019061038291906120ce565b610cba565b005b34801561039557600080fd5b506103b060048036038101906103ab9190612243565b610cd0565b005b3480156103be57600080fd5b506103d960048036038101906103d49190611f03565b610d32565b6040516103e69190611eab565b60405180910390f35b3480156103fb57600080fd5b50610416600480360381019061041191906122c6565b610e83565b6040516104239190611df7565b60405180910390f35b34801561043857600080fd5b50610453600480360381019061044e9190611f03565b610f17565b6040516104609190611eab565b60405180910390f35b60007f80ac58cd000000000000000000000000000000000000000000000000000000007bffffffffffffffffffffffffffffffffffffffffffffffffffffffff1916827bffffffffffffffffffffffffffffffffffffffffffffffffffffffff1916148061053457507f5b5e139f000000000000000000000000000000000000000000000000000000007bffffffffffffffffffffffffffffffffffffffffffffffffffffffff1916827bffffffffffffffffffffffffffffffffffffffffffffffffffffffff1916145b80610544575061054382610fba565b5b9050919050565b60606000805461055a90612335565b80601f016020809104026020016040519081016040528092919081815260200182805461058690612335565b80156105d35780601f106105a8576101008083540402835291602001916105d3565b820191906000526020600020905b8154815290600101906020018083116105b657829003601f168201915b5050505050905090565b60006105e882611024565b610627576040517f08c379a000000000000000000000000000000000000000000000000000000000815260040161061e906123d8565b60405180910390fd5b6004600083815260200190815260200160002060009054906101000a900473ffffffffffffffffffffffffffffffffffffffff169050919050565b600061066d82610ac0565b90508073ffffffffffffffffffffffffffffffffffffffff168373ffffffffffffffffffffffffffffffffffffffff16036106dd576040517f08c379a00000000000000000000000000000000000000000000000000000000081526004016106d49061246a565b60405180910390fd5b8073ffffffffffffffffffffffffffffffffffffffff166106fc611090565b73ffffffffffffffffffffffffffffffffffffffff16148061072b575061072a81610725611090565b610e83565b5b61076a576040517f08c379a0000000000000000000000000000000000000000000000000000000008152600401610761906124fc565b60405180910390fd5b6107748383611098565b505050565b600080821015801561078c575060078211155b61079557600080fd5b600860009054906101000a900473ffffffffffffffffffffffffffffffffffffffff1673ffffffffffffffffffffffffffffffffffffffff163373ffffffffffffffffffffffffffffffffffffffff1614610825576040517f08c379a000000000000000000000000000000000000000000000000000000000815260040161081c9061258e565b60405180910390fd5b60006108316007611151565b905061085f600860009054906101000a900473ffffffffffffffffffffffffffffffffffffffff168261115f565b6109068160098560088110610877576108766125ae565b5b01805461088390612335565b80601f01602080910402602001604051908101604052809291908181526020018280546108af90612335565b80156108fc5780601f106108d1576101008083540402835291602001916108fc565b820191906000526020600020905b8154815290600101906020018083116108df57829003601f168201915b5050505050611338565b61091060076113ac565b80915050919050565b61092a610924611090565b826113c2565b610969576040517f08c379a00000000000000000000000000000000000000000000000000000000081526004016109609061264f565b60405180910390fd5b6109748383836114a0565b505050565b61099483838360405180602001604052806000815250610cd0565b505050565b600860009054906101000a900473ffffffffffffffffffffffffffffffffffffffff1681565b60003373ffffffffffffffffffffffffffffffffffffffff168373ffffffffffffffffffffffffffffffffffffffff1614158015610a4a5750600860009054906101000a900473ffffffffffffffffffffffffffffffffffffffff1673ffffffffffffffffffffffffffffffffffffffff163373ffffffffffffffffffffffffffffffffffffffff16145b610a89576040517f08c379a0000000000000000000000000000000000000000000000000000000008152600401610a80906126e1565b60405180910390fd5b610ab6600860009054906101000a900473ffffffffffffffffffffffffffffffffffffffff168484610979565b6001905092915050565b6000806002600084815260200190815260200160002060009054906101000a900473ffffffffffffffffffffffffffffffffffffffff169050600073ffffffffffffffffffffffffffffffffffffffff168173ffffffffffffffffffffffffffffffffffffffff1603610b68576040517f08c379a0000000000000000000000000000000000000000000000000000000008152600401610b5f90612773565b60405180910390fd5b80915050919050565b60008073ffffffffffffffffffffffffffffffffffffffff168273ffffffffffffffffffffffffffffffffffffffff1603610be1576040517f08c379a0000000000000000000000000000000000000000000000000000000008152600401610bd890612805565b60405180910390fd5b600360008373ffffffffffffffffffffffffffffffffffffffff1673ffffffffffffffffffffffffffffffffffffffff168152602001908152602001600020549050919050565b606060018054610c3790612335565b80601f0160208091040260200160405190810160405280929190818152602001828054610c6390612335565b8015610cb05780601f10610c8557610100808354040283529160200191610cb0565b820191906000526020600020905b815481529060010190602001808311610c9357829003601f168201915b5050505050905090565b610ccc610cc5611090565b8383611706565b5050565b610ce1610cdb611090565b836113c2565b610d20576040517f08c379a0000000000000000000000000000000000000000000000000000000008152600401610d179061264f565b60405180910390fd5b610d2c84848484611872565b50505050565b6060610d3d82611024565b610d7c576040517f08c379a0000000000000000000000000000000000000000000000000000000008152600401610d7390612897565b60405180910390fd5b6000600660008481526020019081526020016000208054610d9c90612335565b80601f0160208091040260200160405190810160405280929190818152602001828054610dc890612335565b8015610e155780601f10610dea57610100808354040283529160200191610e15565b820191906000526020600020905b815481529060010190602001808311610df857829003601f168201915b505050505090506000610e266118ce565b90506000815103610e3b578192505050610e7e565b600082511115610e70578082604051602001610e589291906128f3565b60405160208183030381529060405292505050610e7e565b610e79846118e5565b925050505b919050565b6000600560008473ffffffffffffffffffffffffffffffffffffffff1673ffffffffffffffffffffffffffffffffffffffff16815260200190815260200160002060008373ffffffffffffffffffffffffffffffffffffffff1673ffffffffffffffffffffffffffffffffffffffff16815260200190815260200160002060009054906101000a900460ff16905092915050565b60098160088110610f2757600080fd5b016000915090508054610f3990612335565b80601f0160208091040260200160405190810160405280929190818152602001828054610f6590612335565b8015610fb25780601f10610f8757610100808354040283529160200191610fb2565b820191906000526020600020905b815481529060010190602001808311610f9557829003601f168201915b505050505081565b60007f01ffc9a7000000000000000000000000000000000000000000000000000000007bffffffffffffffffffffffffffffffffffffffffffffffffffffffff1916827bffffffffffffffffffffffffffffffffffffffffffffffffffffffff1916149050919050565b60008073ffffffffffffffffffffffffffffffffffffffff166002600084815260200190815260200160002060009054906101000a900473ffffffffffffffffffffffffffffffffffffffff1673ffffffffffffffffffffffffffffffffffffffff1614159050919050565b600033905090565b816004600083815260200190815260200160002060006101000a81548173ffffffffffffffffffffffffffffffffffffffff021916908373ffffffffffffffffffffffffffffffffffffffff160217905550808273ffffffffffffffffffffffffffffffffffffffff1661110b83610ac0565b73ffffffffffffffffffffffffffffffffffffffff167f8c5be1e5ebec7d5bd14f71427d1e84f3dd0314c0f7b2291e5b200ac8c7c3b92560405160405180910390a45050565b600081600001549050919050565b600073ffffffffffffffffffffffffffffffffffffffff168273ffffffffffffffffffffffffffffffffffffffff16036111ce576040517f08c379a00000000000000000000000000000000000000000000000000000000081526004016111c590612963565b60405180910390fd5b6111d781611024565b15611217576040517f08c379a000000000000000000000000000000000000000000000000000000000815260040161120e906129cf565b60405180910390fd5b6112236000838361198c565b6001600360008473ffffffffffffffffffffffffffffffffffffffff1673ffffffffffffffffffffffffffffffffffffffff16815260200190815260200160002060008282546112739190612a1e565b92505081905550816002600083815260200190815260200160002060006101000a81548173ffffffffffffffffffffffffffffffffffffffff021916908373ffffffffffffffffffffffffffffffffffffffff160217905550808273ffffffffffffffffffffffffffffffffffffffff16600073ffffffffffffffffffffffffffffffffffffffff167fddf252ad1be2c89b69c2b068fc378daa952ba7f163c4a11628f55a4df523b3ef60405160405180910390a461133460008383611991565b5050565b61134182611024565b611380576040517f08c379a000000000000000000000000000000000000000000000000000000000815260040161137790612ae6565b60405180910390fd5b806006600084815260200190815260200160002090805190602001906113a7929190611ca0565b505050565b6001816000016000828254019250508190555050565b60006113cd82611024565b61140c576040517f08c379a000000000000000000000000000000000000000000000000000000000815260040161140390612b78565b60405180910390fd5b600061141783610ac0565b90508073ffffffffffffffffffffffffffffffffffffffff168473ffffffffffffffffffffffffffffffffffffffff16148061145957506114588185610e83565b5b8061149757508373ffffffffffffffffffffffffffffffffffffffff1661147f846105dd565b73ffffffffffffffffffffffffffffffffffffffff16145b91505092915050565b8273ffffffffffffffffffffffffffffffffffffffff166114c082610ac0565b73ffffffffffffffffffffffffffffffffffffffff1614611516576040517f08c379a000000000000000000000000000000000000000000000000000000000815260040161150d90612c0a565b60405180910390fd5b600073ffffffffffffffffffffffffffffffffffffffff168273ffffffffffffffffffffffffffffffffffffffff1603611585576040517f08c379a000000000000000000000000000000000000000000000000000000000815260040161157c90612c9c565b60405180910390fd5b61159083838361198c565b61159b600082611098565b6001600360008573ffffffffffffffffffffffffffffffffffffffff1673ffffffffffffffffffffffffffffffffffffffff16815260200190815260200160002060008282546115eb9190612cbc565b925050819055506001600360008473ffffffffffffffffffffffffffffffffffffffff1673ffffffffffffffffffffffffffffffffffffffff16815260200190815260200160002060008282546116429190612a1e565b92505081905550816002600083815260200190815260200160002060006101000a81548173ffffffffffffffffffffffffffffffffffffffff021916908373ffffffffffffffffffffffffffffffffffffffff160217905550808273ffffffffffffffffffffffffffffffffffffffff168473ffffffffffffffffffffffffffffffffffffffff167fddf252ad1be2c89b69c2b068fc378daa952ba7f163c4a11628f55a4df523b3ef60405160405180910390a4611701838383611991565b505050565b8173ffffffffffffffffffffffffffffffffffffffff168373ffffffffffffffffffffffffffffffffffffffff1603611774576040517f08c379a000000000000000000000000000000000000000000000000000000000815260040161176b90612d3c565b60405180910390fd5b80600560008573ffffffffffffffffffffffffffffffffffffffff1673ffffffffffffffffffffffffffffffffffffffff16815260200190815260200160002060008473ffffffffffffffffffffffffffffffffffffffff1673ffffffffffffffffffffffffffffffffffffffff16815260200190815260200160002060006101000a81548160ff0219169083151502179055508173ffffffffffffffffffffffffffffffffffffffff168373ffffffffffffffffffffffffffffffffffffffff167f17307eab39ab6107e8899845ad3d59bd9653f200f220920489ca2b5937696c31836040516118659190611df7565b60405180910390a3505050565b61187d8484846114a0565b61188984848484611996565b6118c8576040517f08c379a00000000000000000000000000000000000000000000000000000000081526004016118bf90612dce565b60405180910390fd5b50505050565b606060405180602001604052806000815250905090565b60606118f082611024565b61192f576040517f08c379a000000000000000000000000000000000000000000000000000000000815260040161192690612e60565b60405180910390fd5b60006119396118ce565b905060008151116119595760405180602001604052806000815250611984565b8061196384611b1d565b6040516020016119749291906128f3565b6040516020818303038152906040525b915050919050565b505050565b505050565b60006119b78473ffffffffffffffffffffffffffffffffffffffff16611c7d565b15611b10578373ffffffffffffffffffffffffffffffffffffffff1663150b7a026119e0611090565b8786866040518563ffffffff1660e01b8152600401611a029493929190612ed5565b6020604051808303816000875af1925050508015611a3e57506040513d601f19601f82011682018060405250810190611a3b9190612f36565b60015b611ac0573d8060008114611a6e576040519150601f19603f3d011682016040523d82523d6000602084013e611a73565b606091505b506000815103611ab8576040517f08c379a0000000000000000000000000000000000000000000000000000000008152600401611aaf90612dce565b60405180910390fd5b805181602001fd5b63150b7a0260e01b7bffffffffffffffffffffffffffffffffffffffffffffffffffffffff1916817bffffffffffffffffffffffffffffffffffffffffffffffffffffffff191614915050611b15565b600190505b949350505050565b606060008203611b64576040518060400160405280600181526020017f30000000000000000000000000000000000000000000000000000000000000008152509050611c78565b600082905060005b60008214611b96578080611b7f90612f63565b915050600a82611b8f9190612fda565b9150611b6c565b60008167ffffffffffffffff811115611bb257611bb1612118565b5b6040519080825280601f01601f191660200182016040528015611be45781602001600182028036833780820191505090505b5090505b60008514611c7157600182611bfd9190612cbc565b9150600a85611c0c919061300b565b6030611c189190612a1e565b60f81b818381518110611c2e57611c2d6125ae565b5b60200101907effffffffffffffffffffffffffffffffffffffffffffffffffffffffffffff1916908160001a905350600a85611c6a9190612fda565b9450611be8565b8093505050505b919050565b6000808273ffffffffffffffffffffffffffffffffffffffff163b119050919050565b828054611cac90612335565b90600052602060002090601f016020900481019282611cce5760008555611d15565b82601f10611ce757805160ff1916838001178555611d15565b82800160010185558215611d15579182015b82811115611d14578251825591602001919060010190611cf9565b5b509050611d229190611d26565b5090565b5b80821115611d3f576000816000905550600101611d27565b5090565b6000604051905090565b600080fd5b600080fd5b60007fffffffff0000000000000000000000000000000000000000000000000000000082169050919050565b611d8c81611d57565b8114611d9757600080fd5b50565b600081359050611da981611d83565b92915050565b600060208284031215611dc557611dc4611d4d565b5b6000611dd384828501611d9a565b91505092915050565b60008115159050919050565b611df181611ddc565b82525050565b6000602082019050611e0c6000830184611de8565b92915050565b600081519050919050565b600082825260208201905092915050565b60005b83811015611e4c578082015181840152602081019050611e31565b83811115611e5b576000848401525b50505050565b6000601f19601f8301169050919050565b6000611e7d82611e12565b611e878185611e1d565b9350611e97818560208601611e2e565b611ea081611e61565b840191505092915050565b60006020820190508181036000830152611ec58184611e72565b905092915050565b6000819050919050565b611ee081611ecd565b8114611eeb57600080fd5b50565b600081359050611efd81611ed7565b92915050565b600060208284031215611f1957611f18611d4d565b5b6000611f2784828501611eee565b91505092915050565b600073ffffffffffffffffffffffffffffffffffffffff82169050919050565b6000611f5b82611f30565b9050919050565b611f6b81611f50565b82525050565b6000602082019050611f866000830184611f62565b92915050565b611f9581611f50565b8114611fa057600080fd5b50565b600081359050611fb281611f8c565b92915050565b60008060408385031215611fcf57611fce611d4d565b5b6000611fdd85828601611fa3565b9250506020611fee85828601611eee565b9150509250929050565b61200181611ecd565b82525050565b600060208201905061201c6000830184611ff8565b92915050565b60008060006060848603121561203b5761203a611d4d565b5b600061204986828701611fa3565b935050602061205a86828701611fa3565b925050604061206b86828701611eee565b9150509250925092565b60006020828403121561208b5761208a611d4d565b5b600061209984828501611fa3565b91505092915050565b6120ab81611ddc565b81146120b657600080fd5b50565b6000813590506120c8816120a2565b92915050565b600080604083850312156120e5576120e4611d4d565b5b60006120f385828601611fa3565b9250506020612104858286016120b9565b9150509250929050565b600080fd5b600080fd5b7f4e487b7100000000000000000000000000000000000000000000000000000000600052604160045260246000fd5b61215082611e61565b810181811067ffffffffffffffff8211171561216f5761216e612118565b5b80604052505050565b6000612182611d43565b905061218e8282612147565b919050565b600067ffffffffffffffff8211156121ae576121ad612118565b5b6121b782611e61565b9050602081019050919050565b82818337600083830152505050565b60006121e66121e184612193565b612178565b90508281526020810184848401111561220257612201612113565b5b61220d8482856121c4565b509392505050565b600082601f83011261222a5761222961210e565b5b813561223a8482602086016121d3565b91505092915050565b6000806000806080858703121561225d5761225c611d4d565b5b600061226b87828801611fa3565b945050602061227c87828801611fa3565b935050604061228d87828801611eee565b925050606085013567ffffffffffffffff8111156122ae576122ad611d52565b5b6122ba87828801612215565b91505092959194509250565b600080604083850312156122dd576122dc611d4d565b5b60006122eb85828601611fa3565b92505060206122fc85828601611fa3565b9150509250929050565b7f4e487b7100000000000000000000000000000000000000000000000000000000600052602260045260246000fd5b6000600282049050600182168061234d57607f821691505b6020821081036123605761235f612306565b5b50919050565b7f4552433732313a20617070726f76656420717565727920666f72206e6f6e657860008201527f697374656e7420746f6b656e0000000000000000000000000000000000000000602082015250565b60006123c2602c83611e1d565b91506123cd82612366565b604082019050919050565b600060208201905081810360008301526123f1816123b5565b9050919050565b7f4552433732313a20617070726f76616c20746f2063757272656e74206f776e6560008201527f7200000000000000000000000000000000000000000000000000000000000000602082015250565b6000612454602183611e1d565b915061245f826123f8565b604082019050919050565b6000602082019050818103600083015261248381612447565b9050919050565b7f4552433732313a20617070726f76652063616c6c6572206973206e6f74206f7760008201527f6e6572206e6f7220617070726f76656420666f7220616c6c0000000000000000602082015250565b60006124e6603883611e1d565b91506124f18261248a565b604082019050919050565b60006020820190508181036000830152612515816124d9565b9050919050565b7f4f6e6c7920746865206c6f7474657279206d616e616765722063616e206d696e60008201527f74206e6577204e4654732e000000000000000000000000000000000000000000602082015250565b6000612578602b83611e1d565b91506125838261251c565b604082019050919050565b600060208201905081810360008301526125a78161256b565b9050919050565b7f4e487b7100000000000000000000000000000000000000000000000000000000600052603260045260246000fd5b7f4552433732313a207472616e736665722063616c6c6572206973206e6f74206f60008201527f776e6572206e6f7220617070726f766564000000000000000000000000000000602082015250565b6000612639603183611e1d565b9150612644826125dd565b604082019050919050565b600060208201905081810360008301526126688161262c565b9050919050565b7f4c6f7474657279206d616e616765722063616e277420706c617920746865206c60008201527f6f74746572792e00000000000000000000000000000000000000000000000000602082015250565b60006126cb602783611e1d565b91506126d68261266f565b604082019050919050565b600060208201905081810360008301526126fa816126be565b9050919050565b7f4552433732313a206f776e657220717565727920666f72206e6f6e657869737460008201527f656e7420746f6b656e0000000000000000000000000000000000000000000000602082015250565b600061275d602983611e1d565b915061276882612701565b604082019050919050565b6000602082019050818103600083015261278c81612750565b9050919050565b7f4552433732313a2062616c616e636520717565727920666f7220746865207a6560008201527f726f206164647265737300000000000000000000000000000000000000000000602082015250565b60006127ef602a83611e1d565b91506127fa82612793565b604082019050919050565b6000602082019050818103600083015261281e816127e2565b9050919050565b7f45524337323155524953746f726167653a2055524920717565727920666f722060008201527f6e6f6e6578697374656e7420746f6b656e000000000000000000000000000000602082015250565b6000612881603183611e1d565b915061288c82612825565b604082019050919050565b600060208201905081810360008301526128b081612874565b9050919050565b600081905092915050565b60006128cd82611e12565b6128d781856128b7565b93506128e7818560208601611e2e565b80840191505092915050565b60006128ff82856128c2565b915061290b82846128c2565b91508190509392505050565b7f4552433732313a206d696e7420746f20746865207a65726f2061646472657373600082015250565b600061294d602083611e1d565b915061295882612917565b602082019050919050565b6000602082019050818103600083015261297c81612940565b9050919050565b7f4552433732313a20746f6b656e20616c7265616479206d696e74656400000000600082015250565b60006129b9601c83611e1d565b91506129c482612983565b602082019050919050565b600060208201905081810360008301526129e8816129ac565b9050919050565b7f4e487b7100000000000000000000000000000000000000000000000000000000600052601160045260246000fd5b6000612a2982611ecd565b9150612a3483611ecd565b9250827fffffffffffffffffffffffffffffffffffffffffffffffffffffffffffffffff03821115612a6957612a686129ef565b5b828201905092915050565b7f45524337323155524953746f726167653a2055524920736574206f66206e6f6e60008201527f6578697374656e7420746f6b656e000000000000000000000000000000000000602082015250565b6000612ad0602e83611e1d565b9150612adb82612a74565b604082019050919050565b60006020820190508181036000830152612aff81612ac3565b9050919050565b7f4552433732313a206f70657261746f7220717565727920666f72206e6f6e657860008201527f697374656e7420746f6b656e0000000000000000000000000000000000000000602082015250565b6000612b62602c83611e1d565b9150612b6d82612b06565b604082019050919050565b60006020820190508181036000830152612b9181612b55565b9050919050565b7f4552433732313a207472616e736665722066726f6d20696e636f72726563742060008201527f6f776e6572000000000000000000000000000000000000000000000000000000602082015250565b6000612bf4602583611e1d565b9150612bff82612b98565b604082019050919050565b60006020820190508181036000830152612c2381612be7565b9050919050565b7f4552433732313a207472616e7366657220746f20746865207a65726f2061646460008201527f7265737300000000000000000000000000000000000000000000000000000000602082015250565b6000612c86602483611e1d565b9150612c9182612c2a565b604082019050919050565b60006020820190508181036000830152612cb581612c79565b9050919050565b6000612cc782611ecd565b9150612cd283611ecd565b925082821015612ce557612ce46129ef565b5b828203905092915050565b7f4552433732313a20617070726f766520746f2063616c6c657200000000000000600082015250565b6000612d26601983611e1d565b9150612d3182612cf0565b602082019050919050565b60006020820190508181036000830152612d5581612d19565b9050919050565b7f4552433732313a207472616e7366657220746f206e6f6e20455243373231526560008201527f63656976657220696d706c656d656e7465720000000000000000000000000000602082015250565b6000612db8603283611e1d565b9150612dc382612d5c565b604082019050919050565b60006020820190508181036000830152612de781612dab565b9050919050565b7f4552433732314d657461646174613a2055524920717565727920666f72206e6f60008201527f6e6578697374656e7420746f6b656e0000000000000000000000000000000000602082015250565b6000612e4a602f83611e1d565b9150612e5582612dee565b604082019050919050565b60006020820190508181036000830152612e7981612e3d565b9050919050565b600081519050919050565b600082825260208201905092915050565b6000612ea782612e80565b612eb18185612e8b565b9350612ec1818560208601611e2e565b612eca81611e61565b840191505092915050565b6000608082019050612eea6000830187611f62565b612ef76020830186611f62565b612f046040830185611ff8565b8181036060830152612f168184612e9c565b905095945050505050565b600081519050612f3081611d83565b92915050565b600060208284031215612f4c57612f4b611d4d565b5b6000612f5a84828501612f21565b91505092915050565b6000612f6e82611ecd565b91507fffffffffffffffffffffffffffffffffffffffffffffffffffffffffffffffff8203612fa057612f9f6129ef565b5b600182019050919050565b7f4e487b7100000000000000000000000000000000000000000000000000000000600052601260045260246000fd5b6000612fe582611ecd565b9150612ff083611ecd565b92508261300057612fff612fab565b5b828204905092915050565b600061301682611ecd565b915061302183611ecd565b92508261303157613030612fab565b5b82820690509291505056fea26469706673582212207941257ff96744685fe285c2488837e814fb47861ba3e33772bc2ed98f8df8aa64736f6c634300080d003368747470733a2f2f697066732e696f2f697066732f516d504344654e365932545837436d4e716975566f5550726e484b754a43363674387a4859464a4c6d65544574623f66696c656e616d653d4d656c6f6e2e6a706768747470733a2f2f697066732e696f2f697066732f516d53617137447364557569374748796a567a37436a4b68744848464555567273587043377157546d47517732313f66696c656e616d653d506561722e6a706768747470733a2f2f697066732e696f2f697066732f516d646a69724533627a426676385a596f7764653465555478327243774746706e4539455778397162615971476a3f66696c656e616d653d4170706c652e6a706768747470733a2f2f697066732e696f2f697066732f516d51457542446e6a52376f47554247685958326b346a686f57536e4344565855447277656263465641563945673f66696c656e616d653d5261737062657272792e6a706768747470733a2f2f697066732e696f2f697066732f516d5955423636333462743959586e7043697a4d515a474d4e6f485455585a774e434872447558627146427273613f66696c656e616d653d57617465726d656c6f6e2e6a706768747470733a2f2f697066732e696f2f697066732f516d5436687a734437504a566a7644486f574e6a5970716a366a6a777170713645576a3639764e547457725967733f66696c656e616d653d47726170652e6a706768747470733a2f2f697066732e696f2f697066732f516d65713364634363366556636a465574397248314a5231646a5362706b6545424e5147734151717865766179783f66696c656e616d653d42616e616e612e706e6768747470733a2f2f697066732e696f2f697066732f516d61343465773963394846667974516641646b38366a525554375a5551657a4c415a426e69367269576959755a3f66696c656e616d653d537472617762657272792e6a7067",
  "immutableReferences": {},
  "source": "// SPDX-License-Identifier: MIT\npragma solidity >=0.4.22 <0.9.0;\nimport \"./Try.sol\";\n\ncontract DAppContract {\n\n    uint public value;\n    Try public tryInstance;\n    event click();\n\n    constructor() {\n\n        value = 42;\n        tryInstance = new Try();\n        \n    }\n\n    function pressClick() public {\n        \n        emit click();\n    }\n}",
  "sourcePath": "/home/davide/Scrivania/P2P/LotteryDapp/contracts/DAPPContract.sol",
  "compiler": {
    "name": "solc",
    "version": "0.8.13+commit.abaa5c0e.Emscripten.clang"
  },
  "schemaVersion": "3.4.7",
  "updatedAt": "2022-07-08T16:12:47.292Z",
  "devdoc": {
    "kind": "dev",
    "methods": {},
    "version": 1
  },
  "userdoc": {
    "kind": "user",
    "methods": {},
    "version": 1
  }
}