{
  "contractName": "DAppContract",
  "abi": [
    {
      "inputs": [],
      "stateMutability": "nonpayable",
      "type": "constructor"
    },
    {
      "anonymous": false,
      "inputs": [],
      "name": "click",
      "type": "event"
    },
    {
      "inputs": [],
      "name": "tryInstance",
      "outputs": [
        {
          "internalType": "contract Try",
          "name": "",
          "type": "address"
        }
      ],
      "stateMutability": "view",
      "type": "function"
    },
    {
      "inputs": [],
      "name": "value",
      "outputs": [
        {
          "internalType": "uint256",
          "name": "",
          "type": "uint256"
        }
      ],
      "stateMutability": "view",
      "type": "function"
    },
    {
      "inputs": [],
      "name": "pressClick",
      "outputs": [],
      "stateMutability": "nonpayable",
      "type": "function"
    }
  ],
  "bytecode": "0x608060405234801561001057600080fd5b50602a60008190555060405161002590610087565b604051809103906000f080158015610041573d6000803e3d6000fd5b50600160006101000a81548173ffffffffffffffffffffffffffffffffffffffff021916908373ffffffffffffffffffffffffffffffffffffffff160217905550610094565b617bcf8061028d83390190565b6101ea806100a36000396000f3fe608060405234801561001057600080fd5b50600436106100415760003560e01c80633ea580de146100465780633fa4f24514610064578063fcd85cf014610082575b600080fd5b61004e61008c565b60405161005b9190610165565b60405180910390f35b61006c6100b2565b6040516100799190610199565b60405180910390f35b61008a6100b8565b005b600160009054906101000a900473ffffffffffffffffffffffffffffffffffffffff1681565b60005481565b7f7d55923d6614dd1bb0e0f31c0d68411fadec9357b52118ad41a43144861669e260405160405180910390a1565b600073ffffffffffffffffffffffffffffffffffffffff82169050919050565b6000819050919050565b600061012b610126610121846100e6565b610106565b6100e6565b9050919050565b600061013d82610110565b9050919050565b600061014f82610132565b9050919050565b61015f81610144565b82525050565b600060208201905061017a6000830184610156565b92915050565b6000819050919050565b61019381610180565b82525050565b60006020820190506101ae600083018461018a565b9291505056fea26469706673582212200e31018ebbf01ddcc4ac95c87ab2b9f098424917f4f437c5ddf3d6399528d45664736f6c634300080d003360806040526008600055666a94d74f4300006002556000600c556000601460006101000a81548160ff0219169083151502179055506001601460026101000a81548160ff02191690831515021790555033601460036101000a81548173ffffffffffffffffffffffffffffffffffffffff021916908373ffffffffffffffffffffffffffffffffffffffff1602179055506040516200009e90620001e4565b604051809103906000f080158015620000bb573d6000803e3d6000fd5b50601660006101000a81548173ffffffffffffffffffffffffffffffffffffffff021916908373ffffffffffffffffffffffffffffffffffffffff16021790555060005b60078111620001dd57601660009054906101000a900473ffffffffffffffffffffffffffffffffffffffff1673ffffffffffffffffffffffffffffffffffffffff166312dc1fb3826040518263ffffffff1660e01b81526004016200016591906200020d565b6020604051808303816000875af115801562000185573d6000803e3d6000fd5b505050506040513d601f19601f82011682018060405250810190620001ab919062000260565b60048260088110620001c257620001c162000292565b5b01819055508080620001d490620002f0565b915050620000ff565b506200033d565b61372a80620044a583390190565b6000819050919050565b6200020781620001f2565b82525050565b6000602082019050620002246000830184620001fc565b92915050565b600080fd5b6200023a81620001f2565b81146200024657600080fd5b50565b6000815190506200025a816200022f565b92915050565b6000602082840312156200027957620002786200022a565b5b6000620002898482850162000249565b91505092915050565b7f4e487b7100000000000000000000000000000000000000000000000000000000600052603260045260246000fd5b7f4e487b7100000000000000000000000000000000000000000000000000000000600052601160045260246000fd5b6000620002fd82620001f2565b91507fffffffffffffffffffffffffffffffffffffffffffffffffffffffffffffffff8203620003325762000331620002c1565b5b600182019050919050565b614158806200034d6000396000f3fe6080604052600436106200013a5760003560e01c80635a2ee01911620000af578063a932492f116200006d578063a932492f1462000417578063d8f56ddb1462000447578063d91c98d3146200048b578063e278fe6f14620004bb578063eccb3a4f14620004dd576200013a565b80635a2ee01914620003395780636fd098161462000369578063a035b1fe1462000383578063a2fb117514620003b3578063a8bd563414620003f7576200013a565b80634615102c11620000fd5780634615102c146200022f5780634e2786fb14620002735780634f98952014620002a357806350b4471214620002d3578063590e1ae31462000317576200013a565b806307546172146200013f57806311f0281e146200016f57806322f3e2d4146200019f5780632777724b14620001cf5780633d9ca7a914620001ff575b600080fd5b3480156200014c57600080fd5b506200015762000521565b604051620001669190620026f2565b60405180910390f35b3480156200017c57600080fd5b506200018762000547565b6040516200019691906200272c565b60405180910390f35b348015620001ac57600080fd5b50620001b76200055a565b604051620001c691906200272c565b60405180910390f35b348015620001dc57600080fd5b50620001e76200056d565b604051620001f691906200272c565b60405180910390f35b3480156200020c57600080fd5b506200021762000580565b60405162000226919062002764565b60405180910390f35b3480156200023c57600080fd5b506200025b6004803603810190620002559190620027c1565b62000586565b6040516200026a91906200272c565b60405180910390f35b3480156200028057600080fd5b506200028b6200072d565b6040516200029a919062002764565b60405180910390f35b348015620002b057600080fd5b50620002bb62000733565b604051620002ca919062002818565b60405180910390f35b348015620002e057600080fd5b50620002ff6004803603810190620002f99190620027c1565b62000759565b6040516200030e91906200285a565b60405180910390f35b6200032162000799565b6040516200033091906200272c565b60405180910390f35b3480156200034657600080fd5b5062000351620008e6565b60405162000360919062002764565b60405180910390f35b3480156200037657600080fd5b5062000381620008ec565b005b3480156200039057600080fd5b506200039b6200099c565b604051620003aa919062002764565b60405180910390f35b348015620003c057600080fd5b50620003df6004803603810190620003d99190620027c1565b620009a2565b604051620003ee919062002818565b60405180910390f35b6200041560048036038101906200040f9190620029da565b620009e2565b005b3480156200042457600080fd5b506200042f62000c93565b6040516200043e919062002764565b60405180910390f35b3480156200045457600080fd5b506200047360048036038101906200046d9190620027c1565b62000c99565b60405162000482919062002764565b60405180910390f35b3480156200049857600080fd5b50620004a362000cb5565b604051620004b2919062002764565b60405180910390f35b620004c562000cbb565b604051620004d491906200272c565b60405180910390f35b348015620004ea57600080fd5b50620005096004803603810190620005039190620027c1565b62000eeb565b60405162000518919062002764565b60405180910390f35b601660009054906101000a900473ffffffffffffffffffffffffffffffffffffffff1681565b601460009054906101000a900460ff1681565b601460029054906101000a900460ff1681565b601460019054906101000a900460ff1681565b60135481565b6000601460029054906101000a900460ff16620005a257600080fd5b601460009054906101000a900460ff1615620005f5576040517f08c379a0000000000000000000000000000000000000000000000000000000008152600401620005ec9062002a6d565b60405180910390fd5b3373ffffffffffffffffffffffffffffffffffffffff16601460039054906101000a900473ffffffffffffffffffffffffffffffffffffffff1673ffffffffffffffffffffffffffffffffffffffff161462000688576040517f08c379a00000000000000000000000000000000000000000000000000000000081526004016200067f9062002b05565b60405180910390fd5b60176000620006989190620025df565b816001819055506001600c6000828254620006b4919062002b56565b92505081905550436003819055506000601460016101000a81548160ff0219169083151502179055506001601460006101000a81548160ff0219169083151502179055507fca85f39c3f1adb106efb66e028812359846364ba8d9007a1e25d51305b0f350060405160405180910390a160019050919050565b600c5481565b601460039054906101000a900473ffffffffffffffffffffffffffffffffffffffff1681565b601781815481106200076a57600080fd5b906000526020600020016000915054906101000a900473ffffffffffffffffffffffffffffffffffffffff1681565b6000601460029054906101000a900460ff16620007b557600080fd5b60005b601780549050811015620008de57600060178281548110620007df57620007de62002bb3565b5b9060005260206000200160009054906101000a900473ffffffffffffffffffffffffffffffffffffffff1673ffffffffffffffffffffffffffffffffffffffff1663893d20e86040518163ffffffff1660e01b8152600401602060405180830381865afa15801562000855573d6000803e3d6000fd5b505050506040513d601f19601f820116820180604052508101906200087b919062002c13565b90508073ffffffffffffffffffffffffffffffffffffffff166108fc6002549081150290604051600060405180830381858888f19350505050158015620008c6573d6000803e3d6000fd5b50508080620008d59062002c45565b915050620007b8565b506001905090565b60015481565b601460039054906101000a900473ffffffffffffffffffffffffffffffffffffffff1673ffffffffffffffffffffffffffffffffffffffff163373ffffffffffffffffffffffffffffffffffffffff16146200097f576040517f08c379a0000000000000000000000000000000000000000000000000000000008152600401620009769062002d08565b60405180910390fd5b6000601460026101000a81548160ff021916908315150217905550565b60025481565b60158181548110620009b357600080fd5b906000526020600020016000915054906101000a900473ffffffffffffffffffffffffffffffffffffffff1681565b601460029054906101000a900460ff16620009fc57600080fd5b60005a9050601460009054906101000a900460ff1662000a53576040517f08c379a000000000000000000000000000000000000000000000000000000000815260040162000a4a9062002d7a565b60405180910390fd5b601460039054906101000a900473ffffffffffffffffffffffffffffffffffffffff1673ffffffffffffffffffffffffffffffffffffffff163373ffffffffffffffffffffffffffffffffffffffff160362000ae6576040517f08c379a000000000000000000000000000000000000000000000000000000000815260040162000add9062002e12565b60405180910390fd5b600254341462000b2d576040517f08c379a000000000000000000000000000000000000000000000000000000000815260040162000b249062002e84565b60405180910390fd5b62000b455a8262000b3f919062002ea6565b62000f07565b6000600190505a915062000b665a8362000b60919062002ea6565b62000f07565b5a91508062000bac576040517f08c379a000000000000000000000000000000000000000000000000000000000815260040162000ba39062002f31565b60405180910390fd5b60003384600c5460405162000bc19062002602565b62000bcf939291906200300e565b604051809103906000f08015801562000bec573d6000803e3d6000fd5b5090506017819080600181540180825580915050600190039060005260206000200160009091909190916101000a81548173ffffffffffffffffffffffffffffffffffffffff021916908373ffffffffffffffffffffffffffffffffffffffff1602179055507f4c1df353767031c6614945e337c52b5470e4458cb550ee289d55ee0c5189b64a338560405162000c859291906200304c565b60405180910390a150505050565b60005481565b600d816006811062000caa57600080fd5b016000915090505481565b60035481565b6000601460029054906101000a900460ff1662000cd757600080fd5b601460009054906101000a900460ff1662000d29576040517f08c379a000000000000000000000000000000000000000000000000000000000815260040162000d2090620030c9565b60405180910390fd5b3373ffffffffffffffffffffffffffffffffffffffff16601460039054906101000a900473ffffffffffffffffffffffffffffffffffffffff1673ffffffffffffffffffffffffffffffffffffffff161462000dbc576040517f08c379a000000000000000000000000000000000000000000000000000000000815260040162000db39062003161565b60405180910390fd5b600d600062000dcc919062002610565b6015600062000ddc919062002625565b6000601460006101000a81548160ff02191690831515021790555060015460035462000e09919062002b56565b43101562000e225762000e1b62000799565b5062000ea3565b601460039054906101000a900473ffffffffffffffffffffffffffffffffffffffff1673ffffffffffffffffffffffffffffffffffffffff166108fc479081150290604051600060405180830381858888f1935050505015801562000e8b573d6000803e3d6000fd5b5062000e9662000fa4565b5062000ea162001025565b505b7f74e62ecde9ab3bea9b60b244c0084e6c4aff62f8d990cdb5bdc17303a348770e600d601560135460405162000edc939291906200338a565b60405180910390a16001905090565b6004816008811062000efc57600080fd5b016000915090505481565b62000fa18160405160240162000f1e919062002764565b6040516020818303038152906040527ff5b1bba9000000000000000000000000000000000000000000000000000000007bffffffffffffffffffffffffffffffffffffffffffffffffffffffff19166020820180517bffffffffffffffffffffffffffffffffffffffffffffffffffffffff8381831617835250505050620020cc565b50565b6000601460029054906101000a900460ff1662000fc057600080fd5b601460009054906101000a900460ff161562001013576040517f08c379a00000000000000000000000000000000000000000000000000000000081526004016200100a9062003445565b60405180910390fd5b6200101d620020f5565b506001905090565b6000601460029054906101000a900460ff166200104157600080fd5b601460009054906101000a900460ff161562001094576040517f08c379a00000000000000000000000000000000000000000000000000000000081526004016200108b90620034b7565b60405180910390fd5b601460019054906101000a900460ff1615620010e7576040517f08c379a0000000000000000000000000000000000000000000000000000000008152600401620010de9062003529565b60405180910390fd5b60005b6017805490508110156200209d5760008060006017848154811062001114576200111362002bb3565b5b9060005260206000200160009054906101000a900473ffffffffffffffffffffffffffffffffffffffff1673ffffffffffffffffffffffffffffffffffffffff166389f915f66040518163ffffffff1660e01b815260040160c060405180830381865afa1580156200118a573d6000803e3d6000fd5b505050506040513d601f19601f82011682018060405250810190620011b09190620035fd565b905060005b60068110156200126e57620011e4828260068110620011d957620011d862002bb3565b5b602002015162000f07565b60005b60068110156200125757600d816006811062001208576200120762002bb3565b5b015483836006811062001220576200121f62002bb3565b5b60200201510362001241578480620012389062002c45565b95505062001257565b80806200124e9062002c45565b915050620011e7565b508080620012659062002c45565b915050620011b5565b50600d60056006811062001287576200128662002bb3565b5b015481600560068110620012a0576200129f62002bb3565b5b602002015103620012b057600191505b600060178581548110620012c957620012c862002bb3565b5b9060005260206000200160009054906101000a900473ffffffffffffffffffffffffffffffffffffffff1673ffffffffffffffffffffffffffffffffffffffff1663893d20e86040518163ffffffff1660e01b8152600401602060405180830381865afa1580156200133f573d6000803e3d6000fd5b505050506040513d601f19601f8201168201806040525081019062001365919062002c13565b9050600584148015620013755750825b15620014fb57601660009054906101000a900473ffffffffffffffffffffffffffffffffffffffff1673ffffffffffffffffffffffffffffffffffffffff16635795027f826004600060088110620013d257620013d162002bb3565b5b01546040518363ffffffff1660e01b8152600401620013f39291906200362f565b6020604051808303816000875af115801562001413573d6000803e3d6000fd5b505050506040513d601f19601f820116820180604052508101906200143991906200368d565b506015819080600181540180825580915050600190039060005260206000200160009091909190916101000a81548173ffffffffffffffffffffffffffffffffffffffff021916908373ffffffffffffffffffffffffffffffffffffffff160217905550620014c16040518060600160405280602981526020016200407f602991396200238b565b620014cc8162002428565b620014d86000620024c5565b6004600060088110620014f057620014ef62002bb3565b5b018190555062002083565b6005841480156200150a575082155b156200169057601660009054906101000a900473ffffffffffffffffffffffffffffffffffffffff1673ffffffffffffffffffffffffffffffffffffffff16635795027f82600460016008811062001567576200156662002bb3565b5b01546040518363ffffffff1660e01b8152600401620015889291906200362f565b6020604051808303816000875af1158015620015a8573d6000803e3d6000fd5b505050506040513d601f19601f82011682018060405250810190620015ce91906200368d565b506015819080600181540180825580915050600190039060005260206000200160009091909190916101000a81548173ffffffffffffffffffffffffffffffffffffffff021916908373ffffffffffffffffffffffffffffffffffffffff16021790555062001656604051806060016040528060298152602001620040a8602991396200238b565b620016618162002428565b6200166d6001620024c5565b600460016008811062001685576200168462002bb3565b5b018190555062002082565b6004841480156200169e5750825b156200182457601660009054906101000a900473ffffffffffffffffffffffffffffffffffffffff1673ffffffffffffffffffffffffffffffffffffffff16635795027f826004600260088110620016fb57620016fa62002bb3565b5b01546040518363ffffffff1660e01b81526004016200171c9291906200362f565b6020604051808303816000875af11580156200173c573d6000803e3d6000fd5b505050506040513d601f19601f820116820180604052508101906200176291906200368d565b506015819080600181540180825580915050600190039060005260206000200160009091909190916101000a81548173ffffffffffffffffffffffffffffffffffffffff021916908373ffffffffffffffffffffffffffffffffffffffff160217905550620017ea60405180606001604052806029815260200162004034602991396200238b565b620017f58162002428565b620018016002620024c5565b600460026008811062001819576200181862002bb3565b5b018190555062002081565b60048414801562001833575082155b80620018495750600384148015620018485750825b5b15620019cf57601660009054906101000a900473ffffffffffffffffffffffffffffffffffffffff1673ffffffffffffffffffffffffffffffffffffffff16635795027f826004600360088110620018a657620018a562002bb3565b5b01546040518363ffffffff1660e01b8152600401620018c79291906200362f565b6020604051808303816000875af1158015620018e7573d6000803e3d6000fd5b505050506040513d601f19601f820116820180604052508101906200190d91906200368d565b506015819080600181540180825580915050600190039060005260206000200160009091909190916101000a81548173ffffffffffffffffffffffffffffffffffffffff021916908373ffffffffffffffffffffffffffffffffffffffff1602179055506200199560405180606001604052806029815260200162004034602991396200238b565b620019a08162002428565b620019ac6003620024c5565b6004600360088110620019c457620019c362002bb3565b5b018190555062002080565b600384148015620019de575082155b80620019f45750600284148015620019f35750825b5b1562001b7857601660009054906101000a900473ffffffffffffffffffffffffffffffffffffffff1673ffffffffffffffffffffffffffffffffffffffff16635795027f826004806008811062001a505762001a4f62002bb3565b5b01546040518363ffffffff1660e01b815260040162001a719291906200362f565b6020604051808303816000875af115801562001a91573d6000803e3d6000fd5b505050506040513d601f19601f8201168201806040525081019062001ab791906200368d565b506015819080600181540180825580915050600190039060005260206000200160009091909190916101000a81548173ffffffffffffffffffffffffffffffffffffffff021916908373ffffffffffffffffffffffffffffffffffffffff16021790555062001b3f604051806060016040528060298152602001620040fa602991396200238b565b62001b4a8162002428565b62001b566004620024c5565b6004806008811062001b6d5762001b6c62002bb3565b5b01819055506200207f565b60028414801562001b87575082155b8062001b9d575060018414801562001b9c5750825b5b1562001d2357601660009054906101000a900473ffffffffffffffffffffffffffffffffffffffff1673ffffffffffffffffffffffffffffffffffffffff16635795027f82600460056008811062001bfa5762001bf962002bb3565b5b01546040518363ffffffff1660e01b815260040162001c1b9291906200362f565b6020604051808303816000875af115801562001c3b573d6000803e3d6000fd5b505050506040513d601f19601f8201168201806040525081019062001c6191906200368d565b506015819080600181540180825580915050600190039060005260206000200160009091909190916101000a81548173ffffffffffffffffffffffffffffffffffffffff021916908373ffffffffffffffffffffffffffffffffffffffff16021790555062001ce9604051806060016040528060298152602001620040fa602991396200238b565b62001cf48162002428565b62001d006005620024c5565b600460056008811062001d185762001d1762002bb3565b5b01819055506200207e565b60018414801562001d32575082155b1562001eb857601660009054906101000a900473ffffffffffffffffffffffffffffffffffffffff1673ffffffffffffffffffffffffffffffffffffffff16635795027f82600460066008811062001d8f5762001d8e62002bb3565b5b01546040518363ffffffff1660e01b815260040162001db09291906200362f565b6020604051808303816000875af115801562001dd0573d6000803e3d6000fd5b505050506040513d601f19601f8201168201806040525081019062001df691906200368d565b506015819080600181540180825580915050600190039060005260206000200160009091909190916101000a81548173ffffffffffffffffffffffffffffffffffffffff021916908373ffffffffffffffffffffffffffffffffffffffff16021790555062001e7e604051806060016040528060298152602001620040d1602991396200238b565b62001e898162002428565b62001e956006620024c5565b600460066008811062001ead5762001eac62002bb3565b5b01819055506200207d565b60008414801562001ec65750825b156200204c57601660009054906101000a900473ffffffffffffffffffffffffffffffffffffffff1673ffffffffffffffffffffffffffffffffffffffff16635795027f82600460076008811062001f235762001f2262002bb3565b5b01546040518363ffffffff1660e01b815260040162001f449291906200362f565b6020604051808303816000875af115801562001f64573d6000803e3d6000fd5b505050506040513d601f19601f8201168201806040525081019062001f8a91906200368d565b506015819080600181540180825580915050600190039060005260206000200160009091909190916101000a81548173ffffffffffffffffffffffffffffffffffffffff021916908373ffffffffffffffffffffffffffffffffffffffff16021790555062002012604051806060016040528060298152602001620040d1602991396200238b565b6200201d8162002428565b620020296007620024c5565b600460076008811062002041576200204062002bb3565b5b01819055506200207c565b620020706040518060600160405280602281526020016200405d602291396200238b565b6200207b8162002428565b5b5b5b5b5b5b5b5b505050508080620020949062002c45565b915050620010ea565b506015805490506013819055506001601460016101000a81548160ff0219169083151502179055506001905090565b60008151905060006a636f6e736f6c652e6c6f679050602083016000808483855afa5050505050565b6000601460029054906101000a900460ff166200211157600080fd5b6000600190508015620021de576001600d60006006811062002138576200213762002bb3565b5b01819055506002600d60016006811062002157576200215662002bb3565b5b01819055506003600d60026006811062002176576200217562002bb3565b5b01819055506004600d60036006811062002195576200219462002bb3565b5b01819055506005600d600460068110620021b457620021b362002bb3565b5b01819055506006600d600560068110620021d357620021d262002bb3565b5b018190555062002383565b6000805443620021ef919062002b56565b44426040516020016200220593929190620036bf565b6040516020818303038152906040528051906020012060001c905060005b6005811015620022e257600160456000544362002241919062002b56565b444286604051602001620022599493929190620036fc565b6040516020818303038152906040528051906020012060001c6200227e919062003778565b6200228a919062002b56565b915081600d8260068110620022a457620022a362002bb3565b5b0181905550620022cc600d8260068110620022c457620022c362002bb3565b5b015462000f07565b8080620022d99062002c45565b91505062002223565b506001601d60005443620022f7919062002b56565b4442856040516020016200230f9493929190620036fc565b6040516020818303038152906040528051906020012060001c62002334919062003778565b62002340919062002b56565b600d60056006811062002358576200235762002bb3565b5b018190555062002381600d60056006811062002379576200237862002bb3565b5b015462000f07565b505b600191505090565b6200242581604051602401620023a2919062003832565b6040516020818303038152906040527f41304fac000000000000000000000000000000000000000000000000000000007bffffffffffffffffffffffffffffffffffffffffffffffffffffffff19166020820180517bffffffffffffffffffffffffffffffffffffffffffffffffffffffff8381831617835250505050620020cc565b50565b620024c2816040516024016200243f919062002818565b6040516020818303038152906040527f2c2ecbc2000000000000000000000000000000000000000000000000000000007bffffffffffffffffffffffffffffffffffffffffffffffffffffffff19166020820180517bffffffffffffffffffffffffffffffffffffffffffffffffffffffff8381831617835250505050620020cc565b50565b6000601460029054906101000a900460ff16620024e157600080fd5b816000108015620024f3575060078211155b62002535576040517f08c379a00000000000000000000000000000000000000000000000000000000081526004016200252c90620038a6565b60405180910390fd5b601660009054906101000a900473ffffffffffffffffffffffffffffffffffffffff1673ffffffffffffffffffffffffffffffffffffffff166312dc1fb3836040518263ffffffff1660e01b815260040162002592919062002764565b6020604051808303816000875af1158015620025b2573d6000803e3d6000fd5b505050506040513d601f19601f82011682018060405250810190620025d89190620038c8565b9050919050565b5080546000825590600052602060002090810190620025ff919062002648565b50565b61073980620038fb83390190565b50806006019062002622919062002648565b50565b508054600082559060005260206000209081019062002645919062002648565b50565b5b808211156200266357600081600090555060010162002649565b5090565b600073ffffffffffffffffffffffffffffffffffffffff82169050919050565b6000819050919050565b6000620026b2620026ac620026a68462002667565b62002687565b62002667565b9050919050565b6000620026c68262002691565b9050919050565b6000620026da82620026b9565b9050919050565b620026ec81620026cd565b82525050565b6000602082019050620027096000830184620026e1565b92915050565b60008115159050919050565b62002726816200270f565b82525050565b60006020820190506200274360008301846200271b565b92915050565b6000819050919050565b6200275e8162002749565b82525050565b60006020820190506200277b600083018462002753565b92915050565b6000604051905090565b600080fd5b6200279b8162002749565b8114620027a757600080fd5b50565b600081359050620027bb8162002790565b92915050565b600060208284031215620027da57620027d96200278b565b5b6000620027ea84828501620027aa565b91505092915050565b6000620028008262002667565b9050919050565b6200281281620027f3565b82525050565b60006020820190506200282f600083018462002807565b92915050565b60006200284282620026b9565b9050919050565b620028548162002835565b82525050565b600060208201905062002871600083018462002849565b92915050565b600080fd5b6000601f19601f8301169050919050565b7f4e487b7100000000000000000000000000000000000000000000000000000000600052604160045260246000fd5b620028c7826200287c565b810181811067ffffffffffffffff82111715620028e957620028e86200288d565b5b80604052505050565b6000620028fe62002781565b90506200290c8282620028bc565b919050565b600067ffffffffffffffff8211156200292f576200292e6200288d565b5b602082029050919050565b600080fd5b600062002956620029508462002911565b620028f2565b905080602084028301858111156200297357620029726200293a565b5b835b81811015620029a057806200298b8882620027aa565b84526020840193505060208101905062002975565b5050509392505050565b600082601f830112620029c257620029c162002877565b5b6006620029d18482856200293f565b91505092915050565b600060c08284031215620029f357620029f26200278b565b5b600062002a0384828501620029aa565b91505092915050565b600082825260208201905092915050565b7f4c6f747465727920616c7265616479206f70656e210000000000000000000000600082015250565b600062002a5560158362002a0c565b915062002a628262002a1d565b602082019050919050565b6000602082019050818103600083015262002a888162002a46565b9050919050565b7f4f6e6c7920746865206c6f7474657279206d616e616765722063616e2073746160008201527f72742061206e657720726f756e642e0000000000000000000000000000000000602082015250565b600062002aed602f8362002a0c565b915062002afa8262002a8f565b604082019050919050565b6000602082019050818103600083015262002b208162002ade565b9050919050565b7f4e487b7100000000000000000000000000000000000000000000000000000000600052601160045260246000fd5b600062002b638262002749565b915062002b708362002749565b9250827fffffffffffffffffffffffffffffffffffffffffffffffffffffffffffffffff0382111562002ba85762002ba762002b27565b5b828201905092915050565b7f4e487b7100000000000000000000000000000000000000000000000000000000600052603260045260246000fd5b62002bed81620027f3565b811462002bf957600080fd5b50565b60008151905062002c0d8162002be2565b92915050565b60006020828403121562002c2c5762002c2b6200278b565b5b600062002c3c8482850162002bfc565b91505092915050565b600062002c528262002749565b91507fffffffffffffffffffffffffffffffffffffffffffffffffffffffffffffffff820362002c875762002c8662002b27565b5b600182019050919050565b7f4f6e6c7920746865206c6f7474657279206d616e616765722063616e20636c6f60008201527f73652074686520636f6e74726163742e00000000000000000000000000000000602082015250565b600062002cf060308362002a0c565b915062002cfd8262002c92565b604082019050919050565b6000602082019050818103600083015262002d238162002ce1565b9050919050565b7f4c6f747465727920636c6f736564000000000000000000000000000000000000600082015250565b600062002d62600e8362002a0c565b915062002d6f8262002d2a565b602082019050919050565b6000602082019050818103600083015262002d958162002d53565b9050919050565b7f4c6f7474657279206d616e616765722063616e6e6f7420706c61792c2073696760008201527f682e2e2e00000000000000000000000000000000000000000000000000000000602082015250565b600062002dfa60248362002a0c565b915062002e078262002d9c565b604082019050919050565b6000602082019050818103600083015262002e2d8162002deb565b9050919050565b7f4e6f7420656e6f756768206d6f6e657921000000000000000000000000000000600082015250565b600062002e6c60118362002a0c565b915062002e798262002e34565b602082019050919050565b6000602082019050818103600083015262002e9f8162002e5d565b9050919050565b600062002eb38262002749565b915062002ec08362002749565b92508282101562002ed65762002ed562002b27565b5b828203905092915050565b7f45616368206e756d626572206d75737420626520756e69717565210000000000600082015250565b600062002f19601b8362002a0c565b915062002f268262002ee1565b602082019050919050565b6000602082019050818103600083015262002f4c8162002f0a565b9050919050565b600060069050919050565b600081905092915050565b6000819050919050565b62002f7e8162002749565b82525050565b600062002f92838362002f73565b60208301905092915050565b6000602082019050919050565b62002fb68162002f53565b62002fc2818462002f5e565b925062002fcf8262002f69565b8060005b838110156200300657815162002fea878262002f84565b965062002ff78362002f9e565b92505060018101905062002fd3565b505050505050565b60006101008201905062003026600083018662002807565b62003035602083018562002fab565b6200304460e083018462002753565b949350505050565b600060e08201905062003063600083018562002807565b62003072602083018462002fab565b9392505050565b7f4c6f747465727920616c726561647920636c6f73652100000000000000000000600082015250565b6000620030b160168362002a0c565b9150620030be8262003079565b602082019050919050565b60006020820190508181036000830152620030e481620030a2565b9050919050565b7f4f6e6c7920746865206c6f7474657279206d616e616765722063616e20636c6f60008201527f7365206120726f756e642e000000000000000000000000000000000000000000602082015250565b600062003149602b8362002a0c565b91506200315682620030eb565b604082019050919050565b600060208201905081810360008301526200317c816200313a565b9050919050565b600060069050919050565b6000819050919050565b60008160001c9050919050565b6000819050919050565b6000620031c6620031c08362003198565b620031a5565b9050919050565b6000620031db8254620031af565b9050919050565b6000600182019050919050565b620031fa8162003183565b62003206818462002f5e565b925062003213826200318e565b8060005b8381101562003253576200322b82620031cd565b62003237878262002f84565b96506200324483620031e2565b92505060018101905062003217565b505050505050565b600081549050919050565b600082825260208201905092915050565b60008190508160005260206000209050919050565b6200329781620027f3565b82525050565b6000620032ab83836200328c565b60208301905092915050565b600073ffffffffffffffffffffffffffffffffffffffff82169050919050565b6000620032ee620032e88362003198565b620032b7565b9050919050565b6000620033038254620032d7565b9050919050565b6000600182019050919050565b600062003324826200325b565b62003330818562003266565b93506200333d8362003277565b8060005b838110156200337d576200335582620032f5565b6200336188826200329d565b97506200336e836200330a565b92505060018101905062003341565b5085935050505092915050565b600061010082019050620033a26000830186620031ef565b81810360c0830152620033b6818562003317565b9050620033c760e083018462002753565b949350505050565b7f41206e6577206c6f747465727920726f756e642077696c6c207374617274207360008201527f6f6f6e2e2e2e0000000000000000000000000000000000000000000000000000602082015250565b60006200342d60268362002a0c565b91506200343a82620033cf565b604082019050919050565b6000602082019050818103600083015262003460816200341e565b9050919050565b7f41206e657720726f756e642077696c6c20737461727420736f6f6e0000000000600082015250565b60006200349f601b8362002a0c565b9150620034ac8262003467565b602082019050919050565b60006020820190508181036000830152620034d28162003490565b9050919050565b7f5072697a657320616c72656164792064697374726962757465642e0000000000600082015250565b600062003511601b8362002a0c565b91506200351e82620034d9565b602082019050919050565b60006020820190508181036000830152620035448162003502565b9050919050565b6000815190506200355c8162002790565b92915050565b600062003579620035738462002911565b620028f2565b905080602084028301858111156200359657620035956200293a565b5b835b81811015620035c35780620035ae88826200354b565b84526020840193505060208101905062003598565b5050509392505050565b600082601f830112620035e557620035e462002877565b5b6006620035f484828562003562565b91505092915050565b600060c082840312156200361657620036156200278b565b5b60006200362684828501620035cd565b91505092915050565b600060408201905062003646600083018562002807565b62003655602083018462002753565b9392505050565b62003667816200270f565b81146200367357600080fd5b50565b60008151905062003687816200365c565b92915050565b600060208284031215620036a657620036a56200278b565b5b6000620036b68482850162003676565b91505092915050565b6000606082019050620036d6600083018662002753565b620036e5602083018562002753565b620036f4604083018462002753565b949350505050565b600060808201905062003713600083018762002753565b62003722602083018662002753565b62003731604083018562002753565b62003740606083018462002753565b95945050505050565b7f4e487b7100000000000000000000000000000000000000000000000000000000600052601260045260246000fd5b6000620037858262002749565b9150620037928362002749565b925082620037a557620037a462003749565b5b828206905092915050565b600081519050919050565b60005b83811015620037db578082015181840152602081019050620037be565b83811115620037eb576000848401525b50505050565b6000620037fe82620037b0565b6200380a818562002a0c565b93506200381c818560208601620037bb565b62003827816200287c565b840191505092915050565b600060208201905081810360008301526200384e8184620037f1565b905092915050565b7f496e646578206f7574206f6620626f756e64732e000000000000000000000000600082015250565b60006200388e60148362002a0c565b91506200389b8262003856565b602082019050919050565b60006020820190508181036000830152620038c1816200387f565b9050919050565b600060208284031215620038e157620038e06200278b565b5b6000620038f1848285016200354b565b9150509291505056fe608060405234801561001057600080fd5b50604051610739380380610739833981810160405281019061003291906102da565b826000806101000a81548173ffffffffffffffffffffffffffffffffffffffff021916908373ffffffffffffffffffffffffffffffffffffffff160217905550816001906006610083929190610093565b508060078190555050505061032e565b82600681019282156100c2579160200282015b828111156100c15782518255916020019190600101906100a6565b5b5090506100cf91906100d3565b5090565b5b808211156100ec5760008160009055506001016100d4565b5090565b6000604051905090565b600080fd5b600073ffffffffffffffffffffffffffffffffffffffff82169050919050565b600061012a826100ff565b9050919050565b61013a8161011f565b811461014557600080fd5b50565b60008151905061015781610131565b92915050565b600080fd5b6000601f19601f8301169050919050565b7f4e487b7100000000000000000000000000000000000000000000000000000000600052604160045260246000fd5b6101ab82610162565b810181811067ffffffffffffffff821117156101ca576101c9610173565b5b80604052505050565b60006101dd6100f0565b90506101e982826101a2565b919050565b600067ffffffffffffffff82111561020957610208610173565b5b602082029050919050565b600080fd5b6000819050919050565b61022c81610219565b811461023757600080fd5b50565b60008151905061024981610223565b92915050565b600061026261025d846101ee565b6101d3565b9050806020840283018581111561027c5761027b610214565b5b835b818110156102a55780610291888261023a565b84526020840193505060208101905061027e565b5050509392505050565b600082601f8301126102c4576102c361015d565b5b60066102d184828561024f565b91505092915050565b600080600061010084860312156102f4576102f36100fa565b5b600061030286828701610148565b9350506020610313868287016102af565b92505060e06103248682870161023a565b9150509250925092565b6103fc8061033d6000396000f3fe608060405234801561001057600080fd5b50600436106100625760003560e01c8063146ca53114610067578063893d20e81461008557806389f915f6146100a35780638da5cb5b146100c15780639f8743f7146100df578063d39fa233146100fd575b600080fd5b61006f61012d565b60405161007c919061022b565b60405180910390f35b61008d610133565b60405161009a9190610287565b60405180910390f35b6100ab61015c565b6040516100b8919061034d565b60405180910390f35b6100c96101a7565b6040516100d69190610287565b60405180910390f35b6100e76101cb565b6040516100f4919061022b565b60405180910390f35b61011760048036038101906101129190610399565b6101d5565b604051610124919061022b565b60405180910390f35b60075481565b60008060009054906101000a900473ffffffffffffffffffffffffffffffffffffffff16905090565b6101646101f0565b600160068060200260405190810160405280929190826006801561019d576020028201915b815481526020019060010190808311610189575b5050505050905090565b60008054906101000a900473ffffffffffffffffffffffffffffffffffffffff1681565b6000600754905090565b600181600681106101e557600080fd5b016000915090505481565b6040518060c00160405280600690602082028036833780820191505090505090565b6000819050919050565b61022581610212565b82525050565b6000602082019050610240600083018461021c565b92915050565b600073ffffffffffffffffffffffffffffffffffffffff82169050919050565b600061027182610246565b9050919050565b61028181610266565b82525050565b600060208201905061029c6000830184610278565b92915050565b600060069050919050565b600081905092915050565b6000819050919050565b6102cb81610212565b82525050565b60006102dd83836102c2565b60208301905092915050565b6000602082019050919050565b6102ff816102a2565b61030981846102ad565b9250610314826102b8565b8060005b8381101561034557815161032c87826102d1565b9650610337836102e9565b925050600181019050610318565b505050505050565b600060c08201905061036260008301846102f6565b92915050565b600080fd5b61037681610212565b811461038157600080fd5b50565b6000813590506103938161036d565b92915050565b6000602082840312156103af576103ae610368565b5b60006103bd84828501610384565b9150509291505056fea2646970667358221220d0ce63531fdff83799a71a5e32c5bd6facf4a746534b5fff51220dd6ab41fb1964736f6c634300080d003354686520666f6c6c6f77696e67206164647265737320776f6e2074686520337264207072697a653a2054686520666f6c6c6f77696e672061646472657373206469646e27742077696e3a2054686520666f6c6c6f77696e67206164647265737320776f6e2074686520317374207072697a653a2054686520666f6c6c6f77696e67206164647265737320776f6e2074686520326e64207072697a653a2054686520666f6c6c6f77696e67206164647265737320776f6e2074686520357468207072697a653a2054686520666f6c6c6f77696e67206164647265737320776f6e2074686520347468207072697a653a20a264697066735822122020e02c6ef5648ec332e98a74bda64e2a2c752f5a73d34dabde386ce5d9099bf164736f6c634300080d003360806040526040518061010001604052806040518060800160405280605a81526020016200356d605a913981526020016040518060800160405280605b8152602001620036cf605b913981526020016040518060800160405280605681526020016200362260569139815260200160405180608001604052806057815260200162003678605791398152602001604051806080016040528060558152602001620034c2605591398152602001604051806080016040528060568152602001620035176056913981526020016040518060800160405280605b8152602001620035c7605b913981526020016040518060800160405280605681526020016200346c605691398152506009906008620001189291906200020e565b503480156200012657600080fd5b506040518060400160405280600681526020017f6e65774e465400000000000000000000000000000000000000000000000000008152506040518060400160405280600381526020017f49544d00000000000000000000000000000000000000000000000000000000008152508160009080519060200190620001ab92919062000268565b508060019080519060200190620001c492919062000268565b50505033600860006101000a81548173ffffffffffffffffffffffffffffffffffffffff021916908373ffffffffffffffffffffffffffffffffffffffff160217905550620003ea565b826008810192821562000255579160200282015b82811115620002545782518290805190602001906200024392919062000268565b509160200191906001019062000222565b5b509050620002649190620002f9565b5090565b8280546200027690620003b5565b90600052602060002090601f0160209004810192826200029a5760008555620002e6565b82601f10620002b557805160ff1916838001178555620002e6565b82800160010185558215620002e6579182015b82811115620002e5578251825591602001919060010190620002c8565b5b509050620002f5919062000321565b5090565b5b808211156200031d576000818162000313919062000340565b50600101620002fa565b5090565b5b808211156200033c57600081600090555060010162000322565b5090565b5080546200034e90620003b5565b6000825580601f1062000362575062000383565b601f01602090049060005260206000209081019062000382919062000321565b5b50565b7f4e487b7100000000000000000000000000000000000000000000000000000000600052602260045260246000fd5b60006002820490506001821680620003ce57607f821691505b602082108103620003e457620003e362000386565b5b50919050565b61307280620003fa6000396000f3fe6080604052600436106100fe5760003560e01c80635795027f11610095578063a22cb46511610064578063a22cb46514610360578063b88d4fde14610389578063c87b56dd146103b2578063e985e9c5146103ef578063ec0aa9611461042c576100fe565b80635795027f1461028b5780636352211e146102bb57806370a08231146102f857806395d89b4114610335576100fe565b806312dc1fb3116100d157806312dc1fb3146101d157806323b872dd1461020e57806342842e0e14610237578063481c6a7514610260576100fe565b806301ffc9a71461010357806306fdde0314610140578063081812fc1461016b578063095ea7b3146101a8575b600080fd5b34801561010f57600080fd5b5061012a60048036038101906101259190611daf565b610469565b6040516101379190611df7565b60405180910390f35b34801561014c57600080fd5b5061015561054b565b6040516101629190611eab565b60405180910390f35b34801561017757600080fd5b50610192600480360381019061018d9190611f03565b6105dd565b60405161019f9190611f71565b60405180910390f35b3480156101b457600080fd5b506101cf60048036038101906101ca9190611fb8565b610662565b005b3480156101dd57600080fd5b506101f860048036038101906101f39190611f03565b610779565b6040516102059190612007565b60405180910390f35b34801561021a57600080fd5b5061023560048036038101906102309190612022565b610919565b005b34801561024357600080fd5b5061025e60048036038101906102599190612022565b610979565b005b34801561026c57600080fd5b50610275610999565b6040516102829190611f71565b60405180910390f35b6102a560048036038101906102a09190611fb8565b6109bf565b6040516102b29190611df7565b60405180910390f35b3480156102c757600080fd5b506102e260048036038101906102dd9190611f03565b610ac0565b6040516102ef9190611f71565b60405180910390f35b34801561030457600080fd5b5061031f600480360381019061031a9190612075565b610b71565b60405161032c9190612007565b60405180910390f35b34801561034157600080fd5b5061034a610c28565b6040516103579190611eab565b60405180910390f35b34801561036c57600080fd5b50610387600480360381019061038291906120ce565b610cba565b005b34801561039557600080fd5b506103b060048036038101906103ab9190612243565b610cd0565b005b3480156103be57600080fd5b506103d960048036038101906103d49190611f03565b610d32565b6040516103e69190611eab565b60405180910390f35b3480156103fb57600080fd5b50610416600480360381019061041191906122c6565b610e83565b6040516104239190611df7565b60405180910390f35b34801561043857600080fd5b50610453600480360381019061044e9190611f03565b610f17565b6040516104609190611eab565b60405180910390f35b60007f80ac58cd000000000000000000000000000000000000000000000000000000007bffffffffffffffffffffffffffffffffffffffffffffffffffffffff1916827bffffffffffffffffffffffffffffffffffffffffffffffffffffffff1916148061053457507f5b5e139f000000000000000000000000000000000000000000000000000000007bffffffffffffffffffffffffffffffffffffffffffffffffffffffff1916827bffffffffffffffffffffffffffffffffffffffffffffffffffffffff1916145b80610544575061054382610fba565b5b9050919050565b60606000805461055a90612335565b80601f016020809104026020016040519081016040528092919081815260200182805461058690612335565b80156105d35780601f106105a8576101008083540402835291602001916105d3565b820191906000526020600020905b8154815290600101906020018083116105b657829003601f168201915b5050505050905090565b60006105e882611024565b610627576040517f08c379a000000000000000000000000000000000000000000000000000000000815260040161061e906123d8565b60405180910390fd5b6004600083815260200190815260200160002060009054906101000a900473ffffffffffffffffffffffffffffffffffffffff169050919050565b600061066d82610ac0565b90508073ffffffffffffffffffffffffffffffffffffffff168373ffffffffffffffffffffffffffffffffffffffff16036106dd576040517f08c379a00000000000000000000000000000000000000000000000000000000081526004016106d49061246a565b60405180910390fd5b8073ffffffffffffffffffffffffffffffffffffffff166106fc611090565b73ffffffffffffffffffffffffffffffffffffffff16148061072b575061072a81610725611090565b610e83565b5b61076a576040517f08c379a0000000000000000000000000000000000000000000000000000000008152600401610761906124fc565b60405180910390fd5b6107748383611098565b505050565b600080821015801561078c575060078211155b61079557600080fd5b600860009054906101000a900473ffffffffffffffffffffffffffffffffffffffff1673ffffffffffffffffffffffffffffffffffffffff163373ffffffffffffffffffffffffffffffffffffffff1614610825576040517f08c379a000000000000000000000000000000000000000000000000000000000815260040161081c9061258e565b60405180910390fd5b60006108316007611151565b905061085f600860009054906101000a900473ffffffffffffffffffffffffffffffffffffffff168261115f565b6109068160098560088110610877576108766125ae565b5b01805461088390612335565b80601f01602080910402602001604051908101604052809291908181526020018280546108af90612335565b80156108fc5780601f106108d1576101008083540402835291602001916108fc565b820191906000526020600020905b8154815290600101906020018083116108df57829003601f168201915b5050505050611338565b61091060076113ac565b80915050919050565b61092a610924611090565b826113c2565b610969576040517f08c379a00000000000000000000000000000000000000000000000000000000081526004016109609061264f565b60405180910390fd5b6109748383836114a0565b505050565b61099483838360405180602001604052806000815250610cd0565b505050565b600860009054906101000a900473ffffffffffffffffffffffffffffffffffffffff1681565b60003373ffffffffffffffffffffffffffffffffffffffff168373ffffffffffffffffffffffffffffffffffffffff1614158015610a4a5750600860009054906101000a900473ffffffffffffffffffffffffffffffffffffffff1673ffffffffffffffffffffffffffffffffffffffff163373ffffffffffffffffffffffffffffffffffffffff16145b610a89576040517f08c379a0000000000000000000000000000000000000000000000000000000008152600401610a80906126e1565b60405180910390fd5b610ab6600860009054906101000a900473ffffffffffffffffffffffffffffffffffffffff168484610979565b6001905092915050565b6000806002600084815260200190815260200160002060009054906101000a900473ffffffffffffffffffffffffffffffffffffffff169050600073ffffffffffffffffffffffffffffffffffffffff168173ffffffffffffffffffffffffffffffffffffffff1603610b68576040517f08c379a0000000000000000000000000000000000000000000000000000000008152600401610b5f90612773565b60405180910390fd5b80915050919050565b60008073ffffffffffffffffffffffffffffffffffffffff168273ffffffffffffffffffffffffffffffffffffffff1603610be1576040517f08c379a0000000000000000000000000000000000000000000000000000000008152600401610bd890612805565b60405180910390fd5b600360008373ffffffffffffffffffffffffffffffffffffffff1673ffffffffffffffffffffffffffffffffffffffff168152602001908152602001600020549050919050565b606060018054610c3790612335565b80601f0160208091040260200160405190810160405280929190818152602001828054610c6390612335565b8015610cb05780601f10610c8557610100808354040283529160200191610cb0565b820191906000526020600020905b815481529060010190602001808311610c9357829003601f168201915b5050505050905090565b610ccc610cc5611090565b8383611706565b5050565b610ce1610cdb611090565b836113c2565b610d20576040517f08c379a0000000000000000000000000000000000000000000000000000000008152600401610d179061264f565b60405180910390fd5b610d2c84848484611872565b50505050565b6060610d3d82611024565b610d7c576040517f08c379a0000000000000000000000000000000000000000000000000000000008152600401610d7390612897565b60405180910390fd5b6000600660008481526020019081526020016000208054610d9c90612335565b80601f0160208091040260200160405190810160405280929190818152602001828054610dc890612335565b8015610e155780601f10610dea57610100808354040283529160200191610e15565b820191906000526020600020905b815481529060010190602001808311610df857829003601f168201915b505050505090506000610e266118ce565b90506000815103610e3b578192505050610e7e565b600082511115610e70578082604051602001610e589291906128f3565b60405160208183030381529060405292505050610e7e565b610e79846118e5565b925050505b919050565b6000600560008473ffffffffffffffffffffffffffffffffffffffff1673ffffffffffffffffffffffffffffffffffffffff16815260200190815260200160002060008373ffffffffffffffffffffffffffffffffffffffff1673ffffffffffffffffffffffffffffffffffffffff16815260200190815260200160002060009054906101000a900460ff16905092915050565b60098160088110610f2757600080fd5b016000915090508054610f3990612335565b80601f0160208091040260200160405190810160405280929190818152602001828054610f6590612335565b8015610fb25780601f10610f8757610100808354040283529160200191610fb2565b820191906000526020600020905b815481529060010190602001808311610f9557829003601f168201915b505050505081565b60007f01ffc9a7000000000000000000000000000000000000000000000000000000007bffffffffffffffffffffffffffffffffffffffffffffffffffffffff1916827bffffffffffffffffffffffffffffffffffffffffffffffffffffffff1916149050919050565b60008073ffffffffffffffffffffffffffffffffffffffff166002600084815260200190815260200160002060009054906101000a900473ffffffffffffffffffffffffffffffffffffffff1673ffffffffffffffffffffffffffffffffffffffff1614159050919050565b600033905090565b816004600083815260200190815260200160002060006101000a81548173ffffffffffffffffffffffffffffffffffffffff021916908373ffffffffffffffffffffffffffffffffffffffff160217905550808273ffffffffffffffffffffffffffffffffffffffff1661110b83610ac0565b73ffffffffffffffffffffffffffffffffffffffff167f8c5be1e5ebec7d5bd14f71427d1e84f3dd0314c0f7b2291e5b200ac8c7c3b92560405160405180910390a45050565b600081600001549050919050565b600073ffffffffffffffffffffffffffffffffffffffff168273ffffffffffffffffffffffffffffffffffffffff16036111ce576040517f08c379a00000000000000000000000000000000000000000000000000000000081526004016111c590612963565b60405180910390fd5b6111d781611024565b15611217576040517f08c379a000000000000000000000000000000000000000000000000000000000815260040161120e906129cf565b60405180910390fd5b6112236000838361198c565b6001600360008473ffffffffffffffffffffffffffffffffffffffff1673ffffffffffffffffffffffffffffffffffffffff16815260200190815260200160002060008282546112739190612a1e565b92505081905550816002600083815260200190815260200160002060006101000a81548173ffffffffffffffffffffffffffffffffffffffff021916908373ffffffffffffffffffffffffffffffffffffffff160217905550808273ffffffffffffffffffffffffffffffffffffffff16600073ffffffffffffffffffffffffffffffffffffffff167fddf252ad1be2c89b69c2b068fc378daa952ba7f163c4a11628f55a4df523b3ef60405160405180910390a461133460008383611991565b5050565b61134182611024565b611380576040517f08c379a000000000000000000000000000000000000000000000000000000000815260040161137790612ae6565b60405180910390fd5b806006600084815260200190815260200160002090805190602001906113a7929190611ca0565b505050565b6001816000016000828254019250508190555050565b60006113cd82611024565b61140c576040517f08c379a000000000000000000000000000000000000000000000000000000000815260040161140390612b78565b60405180910390fd5b600061141783610ac0565b90508073ffffffffffffffffffffffffffffffffffffffff168473ffffffffffffffffffffffffffffffffffffffff16148061145957506114588185610e83565b5b8061149757508373ffffffffffffffffffffffffffffffffffffffff1661147f846105dd565b73ffffffffffffffffffffffffffffffffffffffff16145b91505092915050565b8273ffffffffffffffffffffffffffffffffffffffff166114c082610ac0565b73ffffffffffffffffffffffffffffffffffffffff1614611516576040517f08c379a000000000000000000000000000000000000000000000000000000000815260040161150d90612c0a565b60405180910390fd5b600073ffffffffffffffffffffffffffffffffffffffff168273ffffffffffffffffffffffffffffffffffffffff1603611585576040517f08c379a000000000000000000000000000000000000000000000000000000000815260040161157c90612c9c565b60405180910390fd5b61159083838361198c565b61159b600082611098565b6001600360008573ffffffffffffffffffffffffffffffffffffffff1673ffffffffffffffffffffffffffffffffffffffff16815260200190815260200160002060008282546115eb9190612cbc565b925050819055506001600360008473ffffffffffffffffffffffffffffffffffffffff1673ffffffffffffffffffffffffffffffffffffffff16815260200190815260200160002060008282546116429190612a1e565b92505081905550816002600083815260200190815260200160002060006101000a81548173ffffffffffffffffffffffffffffffffffffffff021916908373ffffffffffffffffffffffffffffffffffffffff160217905550808273ffffffffffffffffffffffffffffffffffffffff168473ffffffffffffffffffffffffffffffffffffffff167fddf252ad1be2c89b69c2b068fc378daa952ba7f163c4a11628f55a4df523b3ef60405160405180910390a4611701838383611991565b505050565b8173ffffffffffffffffffffffffffffffffffffffff168373ffffffffffffffffffffffffffffffffffffffff1603611774576040517f08c379a000000000000000000000000000000000000000000000000000000000815260040161176b90612d3c565b60405180910390fd5b80600560008573ffffffffffffffffffffffffffffffffffffffff1673ffffffffffffffffffffffffffffffffffffffff16815260200190815260200160002060008473ffffffffffffffffffffffffffffffffffffffff1673ffffffffffffffffffffffffffffffffffffffff16815260200190815260200160002060006101000a81548160ff0219169083151502179055508173ffffffffffffffffffffffffffffffffffffffff168373ffffffffffffffffffffffffffffffffffffffff167f17307eab39ab6107e8899845ad3d59bd9653f200f220920489ca2b5937696c31836040516118659190611df7565b60405180910390a3505050565b61187d8484846114a0565b61188984848484611996565b6118c8576040517f08c379a00000000000000000000000000000000000000000000000000000000081526004016118bf90612dce565b60405180910390fd5b50505050565b606060405180602001604052806000815250905090565b60606118f082611024565b61192f576040517f08c379a000000000000000000000000000000000000000000000000000000000815260040161192690612e60565b60405180910390fd5b60006119396118ce565b905060008151116119595760405180602001604052806000815250611984565b8061196384611b1d565b6040516020016119749291906128f3565b6040516020818303038152906040525b915050919050565b505050565b505050565b60006119b78473ffffffffffffffffffffffffffffffffffffffff16611c7d565b15611b10578373ffffffffffffffffffffffffffffffffffffffff1663150b7a026119e0611090565b8786866040518563ffffffff1660e01b8152600401611a029493929190612ed5565b6020604051808303816000875af1925050508015611a3e57506040513d601f19601f82011682018060405250810190611a3b9190612f36565b60015b611ac0573d8060008114611a6e576040519150601f19603f3d011682016040523d82523d6000602084013e611a73565b606091505b506000815103611ab8576040517f08c379a0000000000000000000000000000000000000000000000000000000008152600401611aaf90612dce565b60405180910390fd5b805181602001fd5b63150b7a0260e01b7bffffffffffffffffffffffffffffffffffffffffffffffffffffffff1916817bffffffffffffffffffffffffffffffffffffffffffffffffffffffff191614915050611b15565b600190505b949350505050565b606060008203611b64576040518060400160405280600181526020017f30000000000000000000000000000000000000000000000000000000000000008152509050611c78565b600082905060005b60008214611b96578080611b7f90612f63565b915050600a82611b8f9190612fda565b9150611b6c565b60008167ffffffffffffffff811115611bb257611bb1612118565b5b6040519080825280601f01601f191660200182016040528015611be45781602001600182028036833780820191505090505b5090505b60008514611c7157600182611bfd9190612cbc565b9150600a85611c0c919061300b565b6030611c189190612a1e565b60f81b818381518110611c2e57611c2d6125ae565b5b60200101907effffffffffffffffffffffffffffffffffffffffffffffffffffffffffffff1916908160001a905350600a85611c6a9190612fda565b9450611be8565b8093505050505b919050565b6000808273ffffffffffffffffffffffffffffffffffffffff163b119050919050565b828054611cac90612335565b90600052602060002090601f016020900481019282611cce5760008555611d15565b82601f10611ce757805160ff1916838001178555611d15565b82800160010185558215611d15579182015b82811115611d14578251825591602001919060010190611cf9565b5b509050611d229190611d26565b5090565b5b80821115611d3f576000816000905550600101611d27565b5090565b6000604051905090565b600080fd5b600080fd5b60007fffffffff0000000000000000000000000000000000000000000000000000000082169050919050565b611d8c81611d57565b8114611d9757600080fd5b50565b600081359050611da981611d83565b92915050565b600060208284031215611dc557611dc4611d4d565b5b6000611dd384828501611d9a565b91505092915050565b60008115159050919050565b611df181611ddc565b82525050565b6000602082019050611e0c6000830184611de8565b92915050565b600081519050919050565b600082825260208201905092915050565b60005b83811015611e4c578082015181840152602081019050611e31565b83811115611e5b576000848401525b50505050565b6000601f19601f8301169050919050565b6000611e7d82611e12565b611e878185611e1d565b9350611e97818560208601611e2e565b611ea081611e61565b840191505092915050565b60006020820190508181036000830152611ec58184611e72565b905092915050565b6000819050919050565b611ee081611ecd565b8114611eeb57600080fd5b50565b600081359050611efd81611ed7565b92915050565b600060208284031215611f1957611f18611d4d565b5b6000611f2784828501611eee565b91505092915050565b600073ffffffffffffffffffffffffffffffffffffffff82169050919050565b6000611f5b82611f30565b9050919050565b611f6b81611f50565b82525050565b6000602082019050611f866000830184611f62565b92915050565b611f9581611f50565b8114611fa057600080fd5b50565b600081359050611fb281611f8c565b92915050565b60008060408385031215611fcf57611fce611d4d565b5b6000611fdd85828601611fa3565b9250506020611fee85828601611eee565b9150509250929050565b61200181611ecd565b82525050565b600060208201905061201c6000830184611ff8565b92915050565b60008060006060848603121561203b5761203a611d4d565b5b600061204986828701611fa3565b935050602061205a86828701611fa3565b925050604061206b86828701611eee565b9150509250925092565b60006020828403121561208b5761208a611d4d565b5b600061209984828501611fa3565b91505092915050565b6120ab81611ddc565b81146120b657600080fd5b50565b6000813590506120c8816120a2565b92915050565b600080604083850312156120e5576120e4611d4d565b5b60006120f385828601611fa3565b9250506020612104858286016120b9565b9150509250929050565b600080fd5b600080fd5b7f4e487b7100000000000000000000000000000000000000000000000000000000600052604160045260246000fd5b61215082611e61565b810181811067ffffffffffffffff8211171561216f5761216e612118565b5b80604052505050565b6000612182611d43565b905061218e8282612147565b919050565b600067ffffffffffffffff8211156121ae576121ad612118565b5b6121b782611e61565b9050602081019050919050565b82818337600083830152505050565b60006121e66121e184612193565b612178565b90508281526020810184848401111561220257612201612113565b5b61220d8482856121c4565b509392505050565b600082601f83011261222a5761222961210e565b5b813561223a8482602086016121d3565b91505092915050565b6000806000806080858703121561225d5761225c611d4d565b5b600061226b87828801611fa3565b945050602061227c87828801611fa3565b935050604061228d87828801611eee565b925050606085013567ffffffffffffffff8111156122ae576122ad611d52565b5b6122ba87828801612215565b91505092959194509250565b600080604083850312156122dd576122dc611d4d565b5b60006122eb85828601611fa3565b92505060206122fc85828601611fa3565b9150509250929050565b7f4e487b7100000000000000000000000000000000000000000000000000000000600052602260045260246000fd5b6000600282049050600182168061234d57607f821691505b6020821081036123605761235f612306565b5b50919050565b7f4552433732313a20617070726f76656420717565727920666f72206e6f6e657860008201527f697374656e7420746f6b656e0000000000000000000000000000000000000000602082015250565b60006123c2602c83611e1d565b91506123cd82612366565b604082019050919050565b600060208201905081810360008301526123f1816123b5565b9050919050565b7f4552433732313a20617070726f76616c20746f2063757272656e74206f776e6560008201527f7200000000000000000000000000000000000000000000000000000000000000602082015250565b6000612454602183611e1d565b915061245f826123f8565b604082019050919050565b6000602082019050818103600083015261248381612447565b9050919050565b7f4552433732313a20617070726f76652063616c6c6572206973206e6f74206f7760008201527f6e6572206e6f7220617070726f76656420666f7220616c6c0000000000000000602082015250565b60006124e6603883611e1d565b91506124f18261248a565b604082019050919050565b60006020820190508181036000830152612515816124d9565b9050919050565b7f4f6e6c7920746865206c6f7474657279206d616e616765722063616e206d696e60008201527f74206e6577204e4654732e000000000000000000000000000000000000000000602082015250565b6000612578602b83611e1d565b91506125838261251c565b604082019050919050565b600060208201905081810360008301526125a78161256b565b9050919050565b7f4e487b7100000000000000000000000000000000000000000000000000000000600052603260045260246000fd5b7f4552433732313a207472616e736665722063616c6c6572206973206e6f74206f60008201527f776e6572206e6f7220617070726f766564000000000000000000000000000000602082015250565b6000612639603183611e1d565b9150612644826125dd565b604082019050919050565b600060208201905081810360008301526126688161262c565b9050919050565b7f4c6f7474657279206d616e616765722063616e277420706c617920746865206c60008201527f6f74746572792e00000000000000000000000000000000000000000000000000602082015250565b60006126cb602783611e1d565b91506126d68261266f565b604082019050919050565b600060208201905081810360008301526126fa816126be565b9050919050565b7f4552433732313a206f776e657220717565727920666f72206e6f6e657869737460008201527f656e7420746f6b656e0000000000000000000000000000000000000000000000602082015250565b600061275d602983611e1d565b915061276882612701565b604082019050919050565b6000602082019050818103600083015261278c81612750565b9050919050565b7f4552433732313a2062616c616e636520717565727920666f7220746865207a6560008201527f726f206164647265737300000000000000000000000000000000000000000000602082015250565b60006127ef602a83611e1d565b91506127fa82612793565b604082019050919050565b6000602082019050818103600083015261281e816127e2565b9050919050565b7f45524337323155524953746f726167653a2055524920717565727920666f722060008201527f6e6f6e6578697374656e7420746f6b656e000000000000000000000000000000602082015250565b6000612881603183611e1d565b915061288c82612825565b604082019050919050565b600060208201905081810360008301526128b081612874565b9050919050565b600081905092915050565b60006128cd82611e12565b6128d781856128b7565b93506128e7818560208601611e2e565b80840191505092915050565b60006128ff82856128c2565b915061290b82846128c2565b91508190509392505050565b7f4552433732313a206d696e7420746f20746865207a65726f2061646472657373600082015250565b600061294d602083611e1d565b915061295882612917565b602082019050919050565b6000602082019050818103600083015261297c81612940565b9050919050565b7f4552433732313a20746f6b656e20616c7265616479206d696e74656400000000600082015250565b60006129b9601c83611e1d565b91506129c482612983565b602082019050919050565b600060208201905081810360008301526129e8816129ac565b9050919050565b7f4e487b7100000000000000000000000000000000000000000000000000000000600052601160045260246000fd5b6000612a2982611ecd565b9150612a3483611ecd565b9250827fffffffffffffffffffffffffffffffffffffffffffffffffffffffffffffffff03821115612a6957612a686129ef565b5b828201905092915050565b7f45524337323155524953746f726167653a2055524920736574206f66206e6f6e60008201527f6578697374656e7420746f6b656e000000000000000000000000000000000000602082015250565b6000612ad0602e83611e1d565b9150612adb82612a74565b604082019050919050565b60006020820190508181036000830152612aff81612ac3565b9050919050565b7f4552433732313a206f70657261746f7220717565727920666f72206e6f6e657860008201527f697374656e7420746f6b656e0000000000000000000000000000000000000000602082015250565b6000612b62602c83611e1d565b9150612b6d82612b06565b604082019050919050565b60006020820190508181036000830152612b9181612b55565b9050919050565b7f4552433732313a207472616e736665722066726f6d20696e636f72726563742060008201527f6f776e6572000000000000000000000000000000000000000000000000000000602082015250565b6000612bf4602583611e1d565b9150612bff82612b98565b604082019050919050565b60006020820190508181036000830152612c2381612be7565b9050919050565b7f4552433732313a207472616e7366657220746f20746865207a65726f2061646460008201527f7265737300000000000000000000000000000000000000000000000000000000602082015250565b6000612c86602483611e1d565b9150612c9182612c2a565b604082019050919050565b60006020820190508181036000830152612cb581612c79565b9050919050565b6000612cc782611ecd565b9150612cd283611ecd565b925082821015612ce557612ce46129ef565b5b828203905092915050565b7f4552433732313a20617070726f766520746f2063616c6c657200000000000000600082015250565b6000612d26601983611e1d565b9150612d3182612cf0565b602082019050919050565b60006020820190508181036000830152612d5581612d19565b9050919050565b7f4552433732313a207472616e7366657220746f206e6f6e20455243373231526560008201527f63656976657220696d706c656d656e7465720000000000000000000000000000602082015250565b6000612db8603283611e1d565b9150612dc382612d5c565b604082019050919050565b60006020820190508181036000830152612de781612dab565b9050919050565b7f4552433732314d657461646174613a2055524920717565727920666f72206e6f60008201527f6e6578697374656e7420746f6b656e0000000000000000000000000000000000602082015250565b6000612e4a602f83611e1d565b9150612e5582612dee565b604082019050919050565b60006020820190508181036000830152612e7981612e3d565b9050919050565b600081519050919050565b600082825260208201905092915050565b6000612ea782612e80565b612eb18185612e8b565b9350612ec1818560208601611e2e565b612eca81611e61565b840191505092915050565b6000608082019050612eea6000830187611f62565b612ef76020830186611f62565b612f046040830185611ff8565b8181036060830152612f168184612e9c565b905095945050505050565b600081519050612f3081611d83565b92915050565b600060208284031215612f4c57612f4b611d4d565b5b6000612f5a84828501612f21565b91505092915050565b6000612f6e82611ecd565b91507fffffffffffffffffffffffffffffffffffffffffffffffffffffffffffffffff8203612fa057612f9f6129ef565b5b600182019050919050565b7f4e487b7100000000000000000000000000000000000000000000000000000000600052601260045260246000fd5b6000612fe582611ecd565b9150612ff083611ecd565b92508261300057612fff612fab565b5b828204905092915050565b600061301682611ecd565b915061302183611ecd565b92508261303157613030612fab565b5b82820690509291505056fea26469706673582212207941257ff96744685fe285c2488837e814fb47861ba3e33772bc2ed98f8df8aa64736f6c634300080d003368747470733a2f2f697066732e696f2f697066732f516d504344654e365932545837436d4e716975566f5550726e484b754a43363674387a4859464a4c6d65544574623f66696c656e616d653d4d656c6f6e2e6a706768747470733a2f2f697066732e696f2f697066732f516d53617137447364557569374748796a567a37436a4b68744848464555567273587043377157546d47517732313f66696c656e616d653d506561722e6a706768747470733a2f2f697066732e696f2f697066732f516d646a69724533627a426676385a596f7764653465555478327243774746706e4539455778397162615971476a3f66696c656e616d653d4170706c652e6a706768747470733a2f2f697066732e696f2f697066732f516d51457542446e6a52376f47554247685958326b346a686f57536e4344565855447277656263465641563945673f66696c656e616d653d5261737062657272792e6a706768747470733a2f2f697066732e696f2f697066732f516d5955423636333462743959586e7043697a4d515a474d4e6f485455585a774e434872447558627146427273613f66696c656e616d653d57617465726d656c6f6e2e6a706768747470733a2f2f697066732e696f2f697066732f516d5436687a734437504a566a7644486f574e6a5970716a366a6a777170713645576a3639764e547457725967733f66696c656e616d653d47726170652e6a706768747470733a2f2f697066732e696f2f697066732f516d65713364634363366556636a465574397248314a5231646a5362706b6545424e5147734151717865766179783f66696c656e616d653d42616e616e612e706e6768747470733a2f2f697066732e696f2f697066732f516d61343465773963394846667974516641646b38366a525554375a5551657a4c415a426e69367269576959755a3f66696c656e616d653d537472617762657272792e6a7067",
  "immutableReferences": {},
  "source": "// SPDX-License-Identifier: MIT\npragma solidity >=0.4.22 <0.9.0;\nimport \"./Try.sol\";\n\ncontract DAppContract {\n\n    uint public value;\n    Try public tryInstance;\n    event click();\n\n    constructor() {\n\n        value = 42;\n        tryInstance = new Try();\n        \n    }\n\n    function pressClick() public {\n        \n        emit click();\n    }\n}",
  "sourcePath": "/home/davide/Scrivania/P2P/LotteryDapp/contracts/DAPPContract.sol",
  "compiler": {
    "name": "solc",
    "version": "0.8.13+commit.abaa5c0e.Emscripten.clang"
  },
  "schemaVersion": "3.4.7",
  "updatedAt": "2022-07-05T19:29:34.914Z",
  "devdoc": {
    "kind": "dev",
    "methods": {},
    "version": 1
  },
  "userdoc": {
    "kind": "user",
    "methods": {},
    "version": 1
  }
}