{
  "contractName": "newNFT",
  "abi": [
    {
      "inputs": [],
      "stateMutability": "nonpayable",
      "type": "constructor"
    },
    {
      "anonymous": false,
      "inputs": [
        {
          "indexed": true,
          "internalType": "address",
          "name": "owner",
          "type": "address"
        },
        {
          "indexed": true,
          "internalType": "address",
          "name": "approved",
          "type": "address"
        },
        {
          "indexed": true,
          "internalType": "uint256",
          "name": "tokenId",
          "type": "uint256"
        }
      ],
      "name": "Approval",
      "type": "event"
    },
    {
      "anonymous": false,
      "inputs": [
        {
          "indexed": true,
          "internalType": "address",
          "name": "owner",
          "type": "address"
        },
        {
          "indexed": true,
          "internalType": "address",
          "name": "operator",
          "type": "address"
        },
        {
          "indexed": false,
          "internalType": "bool",
          "name": "approved",
          "type": "bool"
        }
      ],
      "name": "ApprovalForAll",
      "type": "event"
    },
    {
      "anonymous": false,
      "inputs": [
        {
          "indexed": true,
          "internalType": "address",
          "name": "from",
          "type": "address"
        },
        {
          "indexed": true,
          "internalType": "address",
          "name": "to",
          "type": "address"
        },
        {
          "indexed": true,
          "internalType": "uint256",
          "name": "tokenId",
          "type": "uint256"
        }
      ],
      "name": "Transfer",
      "type": "event"
    },
    {
      "inputs": [
        {
          "internalType": "address",
          "name": "to",
          "type": "address"
        },
        {
          "internalType": "uint256",
          "name": "tokenId",
          "type": "uint256"
        }
      ],
      "name": "approve",
      "outputs": [],
      "stateMutability": "nonpayable",
      "type": "function"
    },
    {
      "inputs": [
        {
          "internalType": "address",
          "name": "owner",
          "type": "address"
        }
      ],
      "name": "balanceOf",
      "outputs": [
        {
          "internalType": "uint256",
          "name": "",
          "type": "uint256"
        }
      ],
      "stateMutability": "view",
      "type": "function"
    },
    {
      "inputs": [
        {
          "internalType": "uint256",
          "name": "tokenId",
          "type": "uint256"
        }
      ],
      "name": "getApproved",
      "outputs": [
        {
          "internalType": "address",
          "name": "",
          "type": "address"
        }
      ],
      "stateMutability": "view",
      "type": "function"
    },
    {
      "inputs": [
        {
          "internalType": "address",
          "name": "owner",
          "type": "address"
        },
        {
          "internalType": "address",
          "name": "operator",
          "type": "address"
        }
      ],
      "name": "isApprovedForAll",
      "outputs": [
        {
          "internalType": "bool",
          "name": "",
          "type": "bool"
        }
      ],
      "stateMutability": "view",
      "type": "function"
    },
    {
      "inputs": [],
      "name": "manager",
      "outputs": [
        {
          "internalType": "address",
          "name": "",
          "type": "address"
        }
      ],
      "stateMutability": "view",
      "type": "function"
    },
    {
      "inputs": [],
      "name": "name",
      "outputs": [
        {
          "internalType": "string",
          "name": "",
          "type": "string"
        }
      ],
      "stateMutability": "view",
      "type": "function"
    },
    {
      "inputs": [
        {
          "internalType": "uint256",
          "name": "tokenId",
          "type": "uint256"
        }
      ],
      "name": "ownerOf",
      "outputs": [
        {
          "internalType": "address",
          "name": "",
          "type": "address"
        }
      ],
      "stateMutability": "view",
      "type": "function"
    },
    {
      "inputs": [
        {
          "internalType": "address",
          "name": "from",
          "type": "address"
        },
        {
          "internalType": "address",
          "name": "to",
          "type": "address"
        },
        {
          "internalType": "uint256",
          "name": "tokenId",
          "type": "uint256"
        }
      ],
      "name": "safeTransferFrom",
      "outputs": [],
      "stateMutability": "nonpayable",
      "type": "function"
    },
    {
      "inputs": [
        {
          "internalType": "address",
          "name": "from",
          "type": "address"
        },
        {
          "internalType": "address",
          "name": "to",
          "type": "address"
        },
        {
          "internalType": "uint256",
          "name": "tokenId",
          "type": "uint256"
        },
        {
          "internalType": "bytes",
          "name": "_data",
          "type": "bytes"
        }
      ],
      "name": "safeTransferFrom",
      "outputs": [],
      "stateMutability": "nonpayable",
      "type": "function"
    },
    {
      "inputs": [
        {
          "internalType": "address",
          "name": "operator",
          "type": "address"
        },
        {
          "internalType": "bool",
          "name": "approved",
          "type": "bool"
        }
      ],
      "name": "setApprovalForAll",
      "outputs": [],
      "stateMutability": "nonpayable",
      "type": "function"
    },
    {
      "inputs": [
        {
          "internalType": "bytes4",
          "name": "interfaceId",
          "type": "bytes4"
        }
      ],
      "name": "supportsInterface",
      "outputs": [
        {
          "internalType": "bool",
          "name": "",
          "type": "bool"
        }
      ],
      "stateMutability": "view",
      "type": "function"
    },
    {
      "inputs": [],
      "name": "symbol",
      "outputs": [
        {
          "internalType": "string",
          "name": "",
          "type": "string"
        }
      ],
      "stateMutability": "view",
      "type": "function"
    },
    {
      "inputs": [
        {
          "internalType": "uint256",
          "name": "",
          "type": "uint256"
        }
      ],
      "name": "tknURIs",
      "outputs": [
        {
          "internalType": "string",
          "name": "",
          "type": "string"
        }
      ],
      "stateMutability": "view",
      "type": "function"
    },
    {
      "inputs": [
        {
          "internalType": "uint256",
          "name": "tokenId",
          "type": "uint256"
        }
      ],
      "name": "tokenURI",
      "outputs": [
        {
          "internalType": "string",
          "name": "",
          "type": "string"
        }
      ],
      "stateMutability": "view",
      "type": "function"
    },
    {
      "inputs": [
        {
          "internalType": "address",
          "name": "from",
          "type": "address"
        },
        {
          "internalType": "address",
          "name": "to",
          "type": "address"
        },
        {
          "internalType": "uint256",
          "name": "tokenId",
          "type": "uint256"
        }
      ],
      "name": "transferFrom",
      "outputs": [],
      "stateMutability": "nonpayable",
      "type": "function"
    },
    {
      "inputs": [
        {
          "internalType": "uint256",
          "name": "index",
          "type": "uint256"
        }
      ],
      "name": "awardItem",
      "outputs": [
        {
          "internalType": "uint256",
          "name": "",
          "type": "uint256"
        }
      ],
      "stateMutability": "nonpayable",
      "type": "function"
    },
    {
      "inputs": [
        {
          "internalType": "address",
          "name": "winner",
          "type": "address"
        },
        {
          "internalType": "uint256",
          "name": "tokenId",
          "type": "uint256"
        }
      ],
      "name": "rewardWinner",
      "outputs": [
        {
          "internalType": "bool",
          "name": "success",
          "type": "bool"
        }
      ],
      "stateMutability": "payable",
      "type": "function"
    }
  ],
  "bytecode": "0x60806040526040518061010001604052806040518060800160405280605a81526020016200356d605a913981526020016040518060800160405280605b8152602001620036cf605b913981526020016040518060800160405280605681526020016200362260569139815260200160405180608001604052806057815260200162003678605791398152602001604051806080016040528060558152602001620034c2605591398152602001604051806080016040528060568152602001620035176056913981526020016040518060800160405280605b8152602001620035c7605b913981526020016040518060800160405280605681526020016200346c605691398152506009906008620001189291906200020e565b503480156200012657600080fd5b506040518060400160405280600681526020017f6e65774e465400000000000000000000000000000000000000000000000000008152506040518060400160405280600381526020017f49544d00000000000000000000000000000000000000000000000000000000008152508160009080519060200190620001ab92919062000268565b508060019080519060200190620001c492919062000268565b50505033600860006101000a81548173ffffffffffffffffffffffffffffffffffffffff021916908373ffffffffffffffffffffffffffffffffffffffff160217905550620003ea565b826008810192821562000255579160200282015b82811115620002545782518290805190602001906200024392919062000268565b509160200191906001019062000222565b5b509050620002649190620002f9565b5090565b8280546200027690620003b5565b90600052602060002090601f0160209004810192826200029a5760008555620002e6565b82601f10620002b557805160ff1916838001178555620002e6565b82800160010185558215620002e6579182015b82811115620002e5578251825591602001919060010190620002c8565b5b509050620002f5919062000321565b5090565b5b808211156200031d576000818162000313919062000340565b50600101620002fa565b5090565b5b808211156200033c57600081600090555060010162000322565b5090565b5080546200034e90620003b5565b6000825580601f1062000362575062000383565b601f01602090049060005260206000209081019062000382919062000321565b5b50565b7f4e487b7100000000000000000000000000000000000000000000000000000000600052602260045260246000fd5b60006002820490506001821680620003ce57607f821691505b602082108103620003e457620003e362000386565b5b50919050565b61307280620003fa6000396000f3fe6080604052600436106100fe5760003560e01c80635795027f11610095578063a22cb46511610064578063a22cb46514610360578063b88d4fde14610389578063c87b56dd146103b2578063e985e9c5146103ef578063ec0aa9611461042c576100fe565b80635795027f1461028b5780636352211e146102bb57806370a08231146102f857806395d89b4114610335576100fe565b806312dc1fb3116100d157806312dc1fb3146101d157806323b872dd1461020e57806342842e0e14610237578063481c6a7514610260576100fe565b806301ffc9a71461010357806306fdde0314610140578063081812fc1461016b578063095ea7b3146101a8575b600080fd5b34801561010f57600080fd5b5061012a60048036038101906101259190611daf565b610469565b6040516101379190611df7565b60405180910390f35b34801561014c57600080fd5b5061015561054b565b6040516101629190611eab565b60405180910390f35b34801561017757600080fd5b50610192600480360381019061018d9190611f03565b6105dd565b60405161019f9190611f71565b60405180910390f35b3480156101b457600080fd5b506101cf60048036038101906101ca9190611fb8565b610662565b005b3480156101dd57600080fd5b506101f860048036038101906101f39190611f03565b610779565b6040516102059190612007565b60405180910390f35b34801561021a57600080fd5b5061023560048036038101906102309190612022565b610919565b005b34801561024357600080fd5b5061025e60048036038101906102599190612022565b610979565b005b34801561026c57600080fd5b50610275610999565b6040516102829190611f71565b60405180910390f35b6102a560048036038101906102a09190611fb8565b6109bf565b6040516102b29190611df7565b60405180910390f35b3480156102c757600080fd5b506102e260048036038101906102dd9190611f03565b610ac0565b6040516102ef9190611f71565b60405180910390f35b34801561030457600080fd5b5061031f600480360381019061031a9190612075565b610b71565b60405161032c9190612007565b60405180910390f35b34801561034157600080fd5b5061034a610c28565b6040516103579190611eab565b60405180910390f35b34801561036c57600080fd5b50610387600480360381019061038291906120ce565b610cba565b005b34801561039557600080fd5b506103b060048036038101906103ab9190612243565b610cd0565b005b3480156103be57600080fd5b506103d960048036038101906103d49190611f03565b610d32565b6040516103e69190611eab565b60405180910390f35b3480156103fb57600080fd5b50610416600480360381019061041191906122c6565b610e83565b6040516104239190611df7565b60405180910390f35b34801561043857600080fd5b50610453600480360381019061044e9190611f03565b610f17565b6040516104609190611eab565b60405180910390f35b60007f80ac58cd000000000000000000000000000000000000000000000000000000007bffffffffffffffffffffffffffffffffffffffffffffffffffffffff1916827bffffffffffffffffffffffffffffffffffffffffffffffffffffffff1916148061053457507f5b5e139f000000000000000000000000000000000000000000000000000000007bffffffffffffffffffffffffffffffffffffffffffffffffffffffff1916827bffffffffffffffffffffffffffffffffffffffffffffffffffffffff1916145b80610544575061054382610fba565b5b9050919050565b60606000805461055a90612335565b80601f016020809104026020016040519081016040528092919081815260200182805461058690612335565b80156105d35780601f106105a8576101008083540402835291602001916105d3565b820191906000526020600020905b8154815290600101906020018083116105b657829003601f168201915b5050505050905090565b60006105e882611024565b610627576040517f08c379a000000000000000000000000000000000000000000000000000000000815260040161061e906123d8565b60405180910390fd5b6004600083815260200190815260200160002060009054906101000a900473ffffffffffffffffffffffffffffffffffffffff169050919050565b600061066d82610ac0565b90508073ffffffffffffffffffffffffffffffffffffffff168373ffffffffffffffffffffffffffffffffffffffff16036106dd576040517f08c379a00000000000000000000000000000000000000000000000000000000081526004016106d49061246a565b60405180910390fd5b8073ffffffffffffffffffffffffffffffffffffffff166106fc611090565b73ffffffffffffffffffffffffffffffffffffffff16148061072b575061072a81610725611090565b610e83565b5b61076a576040517f08c379a0000000000000000000000000000000000000000000000000000000008152600401610761906124fc565b60405180910390fd5b6107748383611098565b505050565b600080821015801561078c575060078211155b61079557600080fd5b600860009054906101000a900473ffffffffffffffffffffffffffffffffffffffff1673ffffffffffffffffffffffffffffffffffffffff163373ffffffffffffffffffffffffffffffffffffffff1614610825576040517f08c379a000000000000000000000000000000000000000000000000000000000815260040161081c9061258e565b60405180910390fd5b60006108316007611151565b905061085f600860009054906101000a900473ffffffffffffffffffffffffffffffffffffffff168261115f565b6109068160098560088110610877576108766125ae565b5b01805461088390612335565b80601f01602080910402602001604051908101604052809291908181526020018280546108af90612335565b80156108fc5780601f106108d1576101008083540402835291602001916108fc565b820191906000526020600020905b8154815290600101906020018083116108df57829003601f168201915b5050505050611338565b61091060076113ac565b80915050919050565b61092a610924611090565b826113c2565b610969576040517f08c379a00000000000000000000000000000000000000000000000000000000081526004016109609061264f565b60405180910390fd5b6109748383836114a0565b505050565b61099483838360405180602001604052806000815250610cd0565b505050565b600860009054906101000a900473ffffffffffffffffffffffffffffffffffffffff1681565b60003373ffffffffffffffffffffffffffffffffffffffff168373ffffffffffffffffffffffffffffffffffffffff1614158015610a4a5750600860009054906101000a900473ffffffffffffffffffffffffffffffffffffffff1673ffffffffffffffffffffffffffffffffffffffff163373ffffffffffffffffffffffffffffffffffffffff16145b610a89576040517f08c379a0000000000000000000000000000000000000000000000000000000008152600401610a80906126e1565b60405180910390fd5b610ab6600860009054906101000a900473ffffffffffffffffffffffffffffffffffffffff168484610979565b6001905092915050565b6000806002600084815260200190815260200160002060009054906101000a900473ffffffffffffffffffffffffffffffffffffffff169050600073ffffffffffffffffffffffffffffffffffffffff168173ffffffffffffffffffffffffffffffffffffffff1603610b68576040517f08c379a0000000000000000000000000000000000000000000000000000000008152600401610b5f90612773565b60405180910390fd5b80915050919050565b60008073ffffffffffffffffffffffffffffffffffffffff168273ffffffffffffffffffffffffffffffffffffffff1603610be1576040517f08c379a0000000000000000000000000000000000000000000000000000000008152600401610bd890612805565b60405180910390fd5b600360008373ffffffffffffffffffffffffffffffffffffffff1673ffffffffffffffffffffffffffffffffffffffff168152602001908152602001600020549050919050565b606060018054610c3790612335565b80601f0160208091040260200160405190810160405280929190818152602001828054610c6390612335565b8015610cb05780601f10610c8557610100808354040283529160200191610cb0565b820191906000526020600020905b815481529060010190602001808311610c9357829003601f168201915b5050505050905090565b610ccc610cc5611090565b8383611706565b5050565b610ce1610cdb611090565b836113c2565b610d20576040517f08c379a0000000000000000000000000000000000000000000000000000000008152600401610d179061264f565b60405180910390fd5b610d2c84848484611872565b50505050565b6060610d3d82611024565b610d7c576040517f08c379a0000000000000000000000000000000000000000000000000000000008152600401610d7390612897565b60405180910390fd5b6000600660008481526020019081526020016000208054610d9c90612335565b80601f0160208091040260200160405190810160405280929190818152602001828054610dc890612335565b8015610e155780601f10610dea57610100808354040283529160200191610e15565b820191906000526020600020905b815481529060010190602001808311610df857829003601f168201915b505050505090506000610e266118ce565b90506000815103610e3b578192505050610e7e565b600082511115610e70578082604051602001610e589291906128f3565b60405160208183030381529060405292505050610e7e565b610e79846118e5565b925050505b919050565b6000600560008473ffffffffffffffffffffffffffffffffffffffff1673ffffffffffffffffffffffffffffffffffffffff16815260200190815260200160002060008373ffffffffffffffffffffffffffffffffffffffff1673ffffffffffffffffffffffffffffffffffffffff16815260200190815260200160002060009054906101000a900460ff16905092915050565b60098160088110610f2757600080fd5b016000915090508054610f3990612335565b80601f0160208091040260200160405190810160405280929190818152602001828054610f6590612335565b8015610fb25780601f10610f8757610100808354040283529160200191610fb2565b820191906000526020600020905b815481529060010190602001808311610f9557829003601f168201915b505050505081565b60007f01ffc9a7000000000000000000000000000000000000000000000000000000007bffffffffffffffffffffffffffffffffffffffffffffffffffffffff1916827bffffffffffffffffffffffffffffffffffffffffffffffffffffffff1916149050919050565b60008073ffffffffffffffffffffffffffffffffffffffff166002600084815260200190815260200160002060009054906101000a900473ffffffffffffffffffffffffffffffffffffffff1673ffffffffffffffffffffffffffffffffffffffff1614159050919050565b600033905090565b816004600083815260200190815260200160002060006101000a81548173ffffffffffffffffffffffffffffffffffffffff021916908373ffffffffffffffffffffffffffffffffffffffff160217905550808273ffffffffffffffffffffffffffffffffffffffff1661110b83610ac0565b73ffffffffffffffffffffffffffffffffffffffff167f8c5be1e5ebec7d5bd14f71427d1e84f3dd0314c0f7b2291e5b200ac8c7c3b92560405160405180910390a45050565b600081600001549050919050565b600073ffffffffffffffffffffffffffffffffffffffff168273ffffffffffffffffffffffffffffffffffffffff16036111ce576040517f08c379a00000000000000000000000000000000000000000000000000000000081526004016111c590612963565b60405180910390fd5b6111d781611024565b15611217576040517f08c379a000000000000000000000000000000000000000000000000000000000815260040161120e906129cf565b60405180910390fd5b6112236000838361198c565b6001600360008473ffffffffffffffffffffffffffffffffffffffff1673ffffffffffffffffffffffffffffffffffffffff16815260200190815260200160002060008282546112739190612a1e565b92505081905550816002600083815260200190815260200160002060006101000a81548173ffffffffffffffffffffffffffffffffffffffff021916908373ffffffffffffffffffffffffffffffffffffffff160217905550808273ffffffffffffffffffffffffffffffffffffffff16600073ffffffffffffffffffffffffffffffffffffffff167fddf252ad1be2c89b69c2b068fc378daa952ba7f163c4a11628f55a4df523b3ef60405160405180910390a461133460008383611991565b5050565b61134182611024565b611380576040517f08c379a000000000000000000000000000000000000000000000000000000000815260040161137790612ae6565b60405180910390fd5b806006600084815260200190815260200160002090805190602001906113a7929190611ca0565b505050565b6001816000016000828254019250508190555050565b60006113cd82611024565b61140c576040517f08c379a000000000000000000000000000000000000000000000000000000000815260040161140390612b78565b60405180910390fd5b600061141783610ac0565b90508073ffffffffffffffffffffffffffffffffffffffff168473ffffffffffffffffffffffffffffffffffffffff16148061145957506114588185610e83565b5b8061149757508373ffffffffffffffffffffffffffffffffffffffff1661147f846105dd565b73ffffffffffffffffffffffffffffffffffffffff16145b91505092915050565b8273ffffffffffffffffffffffffffffffffffffffff166114c082610ac0565b73ffffffffffffffffffffffffffffffffffffffff1614611516576040517f08c379a000000000000000000000000000000000000000000000000000000000815260040161150d90612c0a565b60405180910390fd5b600073ffffffffffffffffffffffffffffffffffffffff168273ffffffffffffffffffffffffffffffffffffffff1603611585576040517f08c379a000000000000000000000000000000000000000000000000000000000815260040161157c90612c9c565b60405180910390fd5b61159083838361198c565b61159b600082611098565b6001600360008573ffffffffffffffffffffffffffffffffffffffff1673ffffffffffffffffffffffffffffffffffffffff16815260200190815260200160002060008282546115eb9190612cbc565b925050819055506001600360008473ffffffffffffffffffffffffffffffffffffffff1673ffffffffffffffffffffffffffffffffffffffff16815260200190815260200160002060008282546116429190612a1e565b92505081905550816002600083815260200190815260200160002060006101000a81548173ffffffffffffffffffffffffffffffffffffffff021916908373ffffffffffffffffffffffffffffffffffffffff160217905550808273ffffffffffffffffffffffffffffffffffffffff168473ffffffffffffffffffffffffffffffffffffffff167fddf252ad1be2c89b69c2b068fc378daa952ba7f163c4a11628f55a4df523b3ef60405160405180910390a4611701838383611991565b505050565b8173ffffffffffffffffffffffffffffffffffffffff168373ffffffffffffffffffffffffffffffffffffffff1603611774576040517f08c379a000000000000000000000000000000000000000000000000000000000815260040161176b90612d3c565b60405180910390fd5b80600560008573ffffffffffffffffffffffffffffffffffffffff1673ffffffffffffffffffffffffffffffffffffffff16815260200190815260200160002060008473ffffffffffffffffffffffffffffffffffffffff1673ffffffffffffffffffffffffffffffffffffffff16815260200190815260200160002060006101000a81548160ff0219169083151502179055508173ffffffffffffffffffffffffffffffffffffffff168373ffffffffffffffffffffffffffffffffffffffff167f17307eab39ab6107e8899845ad3d59bd9653f200f220920489ca2b5937696c31836040516118659190611df7565b60405180910390a3505050565b61187d8484846114a0565b61188984848484611996565b6118c8576040517f08c379a00000000000000000000000000000000000000000000000000000000081526004016118bf90612dce565b60405180910390fd5b50505050565b606060405180602001604052806000815250905090565b60606118f082611024565b61192f576040517f08c379a000000000000000000000000000000000000000000000000000000000815260040161192690612e60565b60405180910390fd5b60006119396118ce565b905060008151116119595760405180602001604052806000815250611984565b8061196384611b1d565b6040516020016119749291906128f3565b6040516020818303038152906040525b915050919050565b505050565b505050565b60006119b78473ffffffffffffffffffffffffffffffffffffffff16611c7d565b15611b10578373ffffffffffffffffffffffffffffffffffffffff1663150b7a026119e0611090565b8786866040518563ffffffff1660e01b8152600401611a029493929190612ed5565b6020604051808303816000875af1925050508015611a3e57506040513d601f19601f82011682018060405250810190611a3b9190612f36565b60015b611ac0573d8060008114611a6e576040519150601f19603f3d011682016040523d82523d6000602084013e611a73565b606091505b506000815103611ab8576040517f08c379a0000000000000000000000000000000000000000000000000000000008152600401611aaf90612dce565b60405180910390fd5b805181602001fd5b63150b7a0260e01b7bffffffffffffffffffffffffffffffffffffffffffffffffffffffff1916817bffffffffffffffffffffffffffffffffffffffffffffffffffffffff191614915050611b15565b600190505b949350505050565b606060008203611b64576040518060400160405280600181526020017f30000000000000000000000000000000000000000000000000000000000000008152509050611c78565b600082905060005b60008214611b96578080611b7f90612f63565b915050600a82611b8f9190612fda565b9150611b6c565b60008167ffffffffffffffff811115611bb257611bb1612118565b5b6040519080825280601f01601f191660200182016040528015611be45781602001600182028036833780820191505090505b5090505b60008514611c7157600182611bfd9190612cbc565b9150600a85611c0c919061300b565b6030611c189190612a1e565b60f81b818381518110611c2e57611c2d6125ae565b5b60200101907effffffffffffffffffffffffffffffffffffffffffffffffffffffffffffff1916908160001a905350600a85611c6a9190612fda565b9450611be8565b8093505050505b919050565b6000808273ffffffffffffffffffffffffffffffffffffffff163b119050919050565b828054611cac90612335565b90600052602060002090601f016020900481019282611cce5760008555611d15565b82601f10611ce757805160ff1916838001178555611d15565b82800160010185558215611d15579182015b82811115611d14578251825591602001919060010190611cf9565b5b509050611d229190611d26565b5090565b5b80821115611d3f576000816000905550600101611d27565b5090565b6000604051905090565b600080fd5b600080fd5b60007fffffffff0000000000000000000000000000000000000000000000000000000082169050919050565b611d8c81611d57565b8114611d9757600080fd5b50565b600081359050611da981611d83565b92915050565b600060208284031215611dc557611dc4611d4d565b5b6000611dd384828501611d9a565b91505092915050565b60008115159050919050565b611df181611ddc565b82525050565b6000602082019050611e0c6000830184611de8565b92915050565b600081519050919050565b600082825260208201905092915050565b60005b83811015611e4c578082015181840152602081019050611e31565b83811115611e5b576000848401525b50505050565b6000601f19601f8301169050919050565b6000611e7d82611e12565b611e878185611e1d565b9350611e97818560208601611e2e565b611ea081611e61565b840191505092915050565b60006020820190508181036000830152611ec58184611e72565b905092915050565b6000819050919050565b611ee081611ecd565b8114611eeb57600080fd5b50565b600081359050611efd81611ed7565b92915050565b600060208284031215611f1957611f18611d4d565b5b6000611f2784828501611eee565b91505092915050565b600073ffffffffffffffffffffffffffffffffffffffff82169050919050565b6000611f5b82611f30565b9050919050565b611f6b81611f50565b82525050565b6000602082019050611f866000830184611f62565b92915050565b611f9581611f50565b8114611fa057600080fd5b50565b600081359050611fb281611f8c565b92915050565b60008060408385031215611fcf57611fce611d4d565b5b6000611fdd85828601611fa3565b9250506020611fee85828601611eee565b9150509250929050565b61200181611ecd565b82525050565b600060208201905061201c6000830184611ff8565b92915050565b60008060006060848603121561203b5761203a611d4d565b5b600061204986828701611fa3565b935050602061205a86828701611fa3565b925050604061206b86828701611eee565b9150509250925092565b60006020828403121561208b5761208a611d4d565b5b600061209984828501611fa3565b91505092915050565b6120ab81611ddc565b81146120b657600080fd5b50565b6000813590506120c8816120a2565b92915050565b600080604083850312156120e5576120e4611d4d565b5b60006120f385828601611fa3565b9250506020612104858286016120b9565b9150509250929050565b600080fd5b600080fd5b7f4e487b7100000000000000000000000000000000000000000000000000000000600052604160045260246000fd5b61215082611e61565b810181811067ffffffffffffffff8211171561216f5761216e612118565b5b80604052505050565b6000612182611d43565b905061218e8282612147565b919050565b600067ffffffffffffffff8211156121ae576121ad612118565b5b6121b782611e61565b9050602081019050919050565b82818337600083830152505050565b60006121e66121e184612193565b612178565b90508281526020810184848401111561220257612201612113565b5b61220d8482856121c4565b509392505050565b600082601f83011261222a5761222961210e565b5b813561223a8482602086016121d3565b91505092915050565b6000806000806080858703121561225d5761225c611d4d565b5b600061226b87828801611fa3565b945050602061227c87828801611fa3565b935050604061228d87828801611eee565b925050606085013567ffffffffffffffff8111156122ae576122ad611d52565b5b6122ba87828801612215565b91505092959194509250565b600080604083850312156122dd576122dc611d4d565b5b60006122eb85828601611fa3565b92505060206122fc85828601611fa3565b9150509250929050565b7f4e487b7100000000000000000000000000000000000000000000000000000000600052602260045260246000fd5b6000600282049050600182168061234d57607f821691505b6020821081036123605761235f612306565b5b50919050565b7f4552433732313a20617070726f76656420717565727920666f72206e6f6e657860008201527f697374656e7420746f6b656e0000000000000000000000000000000000000000602082015250565b60006123c2602c83611e1d565b91506123cd82612366565b604082019050919050565b600060208201905081810360008301526123f1816123b5565b9050919050565b7f4552433732313a20617070726f76616c20746f2063757272656e74206f776e6560008201527f7200000000000000000000000000000000000000000000000000000000000000602082015250565b6000612454602183611e1d565b915061245f826123f8565b604082019050919050565b6000602082019050818103600083015261248381612447565b9050919050565b7f4552433732313a20617070726f76652063616c6c6572206973206e6f74206f7760008201527f6e6572206e6f7220617070726f76656420666f7220616c6c0000000000000000602082015250565b60006124e6603883611e1d565b91506124f18261248a565b604082019050919050565b60006020820190508181036000830152612515816124d9565b9050919050565b7f4f6e6c7920746865206c6f7474657279206d616e616765722063616e206d696e60008201527f74206e6577204e4654732e000000000000000000000000000000000000000000602082015250565b6000612578602b83611e1d565b91506125838261251c565b604082019050919050565b600060208201905081810360008301526125a78161256b565b9050919050565b7f4e487b7100000000000000000000000000000000000000000000000000000000600052603260045260246000fd5b7f4552433732313a207472616e736665722063616c6c6572206973206e6f74206f60008201527f776e6572206e6f7220617070726f766564000000000000000000000000000000602082015250565b6000612639603183611e1d565b9150612644826125dd565b604082019050919050565b600060208201905081810360008301526126688161262c565b9050919050565b7f4c6f7474657279206d616e616765722063616e277420706c617920746865206c60008201527f6f74746572792e00000000000000000000000000000000000000000000000000602082015250565b60006126cb602783611e1d565b91506126d68261266f565b604082019050919050565b600060208201905081810360008301526126fa816126be565b9050919050565b7f4552433732313a206f776e657220717565727920666f72206e6f6e657869737460008201527f656e7420746f6b656e0000000000000000000000000000000000000000000000602082015250565b600061275d602983611e1d565b915061276882612701565b604082019050919050565b6000602082019050818103600083015261278c81612750565b9050919050565b7f4552433732313a2062616c616e636520717565727920666f7220746865207a6560008201527f726f206164647265737300000000000000000000000000000000000000000000602082015250565b60006127ef602a83611e1d565b91506127fa82612793565b604082019050919050565b6000602082019050818103600083015261281e816127e2565b9050919050565b7f45524337323155524953746f726167653a2055524920717565727920666f722060008201527f6e6f6e6578697374656e7420746f6b656e000000000000000000000000000000602082015250565b6000612881603183611e1d565b915061288c82612825565b604082019050919050565b600060208201905081810360008301526128b081612874565b9050919050565b600081905092915050565b60006128cd82611e12565b6128d781856128b7565b93506128e7818560208601611e2e565b80840191505092915050565b60006128ff82856128c2565b915061290b82846128c2565b91508190509392505050565b7f4552433732313a206d696e7420746f20746865207a65726f2061646472657373600082015250565b600061294d602083611e1d565b915061295882612917565b602082019050919050565b6000602082019050818103600083015261297c81612940565b9050919050565b7f4552433732313a20746f6b656e20616c7265616479206d696e74656400000000600082015250565b60006129b9601c83611e1d565b91506129c482612983565b602082019050919050565b600060208201905081810360008301526129e8816129ac565b9050919050565b7f4e487b7100000000000000000000000000000000000000000000000000000000600052601160045260246000fd5b6000612a2982611ecd565b9150612a3483611ecd565b9250827fffffffffffffffffffffffffffffffffffffffffffffffffffffffffffffffff03821115612a6957612a686129ef565b5b828201905092915050565b7f45524337323155524953746f726167653a2055524920736574206f66206e6f6e60008201527f6578697374656e7420746f6b656e000000000000000000000000000000000000602082015250565b6000612ad0602e83611e1d565b9150612adb82612a74565b604082019050919050565b60006020820190508181036000830152612aff81612ac3565b9050919050565b7f4552433732313a206f70657261746f7220717565727920666f72206e6f6e657860008201527f697374656e7420746f6b656e0000000000000000000000000000000000000000602082015250565b6000612b62602c83611e1d565b9150612b6d82612b06565b604082019050919050565b60006020820190508181036000830152612b9181612b55565b9050919050565b7f4552433732313a207472616e736665722066726f6d20696e636f72726563742060008201527f6f776e6572000000000000000000000000000000000000000000000000000000602082015250565b6000612bf4602583611e1d565b9150612bff82612b98565b604082019050919050565b60006020820190508181036000830152612c2381612be7565b9050919050565b7f4552433732313a207472616e7366657220746f20746865207a65726f2061646460008201527f7265737300000000000000000000000000000000000000000000000000000000602082015250565b6000612c86602483611e1d565b9150612c9182612c2a565b604082019050919050565b60006020820190508181036000830152612cb581612c79565b9050919050565b6000612cc782611ecd565b9150612cd283611ecd565b925082821015612ce557612ce46129ef565b5b828203905092915050565b7f4552433732313a20617070726f766520746f2063616c6c657200000000000000600082015250565b6000612d26601983611e1d565b9150612d3182612cf0565b602082019050919050565b60006020820190508181036000830152612d5581612d19565b9050919050565b7f4552433732313a207472616e7366657220746f206e6f6e20455243373231526560008201527f63656976657220696d706c656d656e7465720000000000000000000000000000602082015250565b6000612db8603283611e1d565b9150612dc382612d5c565b604082019050919050565b60006020820190508181036000830152612de781612dab565b9050919050565b7f4552433732314d657461646174613a2055524920717565727920666f72206e6f60008201527f6e6578697374656e7420746f6b656e0000000000000000000000000000000000602082015250565b6000612e4a602f83611e1d565b9150612e5582612dee565b604082019050919050565b60006020820190508181036000830152612e7981612e3d565b9050919050565b600081519050919050565b600082825260208201905092915050565b6000612ea782612e80565b612eb18185612e8b565b9350612ec1818560208601611e2e565b612eca81611e61565b840191505092915050565b6000608082019050612eea6000830187611f62565b612ef76020830186611f62565b612f046040830185611ff8565b8181036060830152612f168184612e9c565b905095945050505050565b600081519050612f3081611d83565b92915050565b600060208284031215612f4c57612f4b611d4d565b5b6000612f5a84828501612f21565b91505092915050565b6000612f6e82611ecd565b91507fffffffffffffffffffffffffffffffffffffffffffffffffffffffffffffffff8203612fa057612f9f6129ef565b5b600182019050919050565b7f4e487b7100000000000000000000000000000000000000000000000000000000600052601260045260246000fd5b6000612fe582611ecd565b9150612ff083611ecd565b92508261300057612fff612fab565b5b828204905092915050565b600061301682611ecd565b915061302183611ecd565b92508261303157613030612fab565b5b82820690509291505056fea26469706673582212207941257ff96744685fe285c2488837e814fb47861ba3e33772bc2ed98f8df8aa64736f6c634300080d003368747470733a2f2f697066732e696f2f697066732f516d504344654e365932545837436d4e716975566f5550726e484b754a43363674387a4859464a4c6d65544574623f66696c656e616d653d4d656c6f6e2e6a706768747470733a2f2f697066732e696f2f697066732f516d53617137447364557569374748796a567a37436a4b68744848464555567273587043377157546d47517732313f66696c656e616d653d506561722e6a706768747470733a2f2f697066732e696f2f697066732f516d646a69724533627a426676385a596f7764653465555478327243774746706e4539455778397162615971476a3f66696c656e616d653d4170706c652e6a706768747470733a2f2f697066732e696f2f697066732f516d51457542446e6a52376f47554247685958326b346a686f57536e4344565855447277656263465641563945673f66696c656e616d653d5261737062657272792e6a706768747470733a2f2f697066732e696f2f697066732f516d5955423636333462743959586e7043697a4d515a474d4e6f485455585a774e434872447558627146427273613f66696c656e616d653d57617465726d656c6f6e2e6a706768747470733a2f2f697066732e696f2f697066732f516d5436687a734437504a566a7644486f574e6a5970716a366a6a777170713645576a3639764e547457725967733f66696c656e616d653d47726170652e6a706768747470733a2f2f697066732e696f2f697066732f516d65713364634363366556636a465574397248314a5231646a5362706b6545424e5147734151717865766179783f66696c656e616d653d42616e616e612e706e6768747470733a2f2f697066732e696f2f697066732f516d61343465773963394846667974516641646b38366a525554375a5551657a4c415a426e69367269576959755a3f66696c656e616d653d537472617762657272792e6a7067",
  "immutableReferences": {},
  "source": "// contracts/GameItem.sol\n// SPDX-License-Identifier: MIT\npragma solidity >=0.7.0 <0.9.0;\n\nimport \"@openzeppelin/contracts/token/ERC721/extensions/ERC721URIStorage.sol\";\nimport \"@openzeppelin/contracts/utils/Counters.sol\";\n\ncontract newNFT is ERC721URIStorage {\n    using Counters for Counters.Counter;\n    Counters.Counter private _tokenIds;\n    address public manager;\n    string[8] public tknURIs = [\n        \"https://ipfs.io/ipfs/QmQEuBDnjR7oGUBGhYX2k4jhoWSnCDVXUDrwebcFVAV9Eg?filename=Raspberry.jpg\",\n        \"https://ipfs.io/ipfs/Qma44ew9c9HFfytQfAdk86jRUT7ZUQezLAZBni6riWiYuZ?filename=Strawberry.jpg\",\n        \"https://ipfs.io/ipfs/QmT6hzsD7PJVjvDHoWNjYpqj6jjwqpq6EWj69vNTtWrYgs?filename=Grape.jpg\",\n        \"https://ipfs.io/ipfs/Qmeq3dcCc6eVcjFUt9rH1JR1djSbpkeEBNQGsAQqxevayx?filename=Banana.png\",\n        \"https://ipfs.io/ipfs/QmSaq7DsdUui7GHyjVz7CjKhtHHFEUVrsXpC7qWTmGQw21?filename=Pear.jpg\",\n        \"https://ipfs.io/ipfs/QmdjirE3bzBfv8ZYowde4eUTx2rCwGFpnE9EWx9qbaYqGj?filename=Apple.jpg\",\n        \"https://ipfs.io/ipfs/QmYUB6634bt9YXnpCizMQZGMNoHTUXZwNCHrDuXbqFBrsa?filename=Watermelon.jpg\",\n        \"https://ipfs.io/ipfs/QmPCDeN6Y2TX7CmNqiuVoUPrnHKuJC66t8zHYFJLmeTEtb?filename=Melon.jpg\"\n    ];\n\n    constructor() ERC721(\"newNFT\", \"ITM\") {\n        manager = msg.sender;\n    }\n\n    function awardItem(uint index) //mint a new NFT given an index. the index mean\n        public\n        returns (uint256)\n    {\n        require(index >= 0 && index <= 7);\n        require(msg.sender == manager, \"Only the lottery manager can mint new NFTs.\");\n        uint256 newItemId = _tokenIds.current();\n        _mint(manager, newItemId);\n        _setTokenURI(newItemId, tknURIs[index]);\n\n        _tokenIds.increment();\n        return newItemId;\n    }\n\n    function rewardWinner(address winner, uint256 tokenId) \n        public\n        payable \n        returns (bool success)\n    {\n        require(winner != msg.sender && msg.sender == manager, \"Lottery manager can't play the lottery.\");\n        safeTransferFrom(manager, winner, tokenId);\n        return true;\n    }\n}",
  "sourcePath": "/home/davide/Scrivania/P2P/LotteryDapp/contracts/newNFT.sol",
  "compiler": {
    "name": "solc",
    "version": "0.8.13+commit.abaa5c0e.Emscripten.clang"
  },
  "schemaVersion": "3.4.7",
  "updatedAt": "2022-07-05T17:50:17.040Z",
  "devdoc": {
    "kind": "dev",
    "methods": {
      "approve(address,uint256)": {
        "details": "See {IERC721-approve}."
      },
      "balanceOf(address)": {
        "details": "See {IERC721-balanceOf}."
      },
      "getApproved(uint256)": {
        "details": "See {IERC721-getApproved}."
      },
      "isApprovedForAll(address,address)": {
        "details": "See {IERC721-isApprovedForAll}."
      },
      "name()": {
        "details": "See {IERC721Metadata-name}."
      },
      "ownerOf(uint256)": {
        "details": "See {IERC721-ownerOf}."
      },
      "safeTransferFrom(address,address,uint256)": {
        "details": "See {IERC721-safeTransferFrom}."
      },
      "safeTransferFrom(address,address,uint256,bytes)": {
        "details": "See {IERC721-safeTransferFrom}."
      },
      "setApprovalForAll(address,bool)": {
        "details": "See {IERC721-setApprovalForAll}."
      },
      "supportsInterface(bytes4)": {
        "details": "See {IERC165-supportsInterface}."
      },
      "symbol()": {
        "details": "See {IERC721Metadata-symbol}."
      },
      "tokenURI(uint256)": {
        "details": "See {IERC721Metadata-tokenURI}."
      },
      "transferFrom(address,address,uint256)": {
        "details": "See {IERC721-transferFrom}."
      }
    },
    "version": 1
  },
  "userdoc": {
    "kind": "user",
    "methods": {},
    "version": 1
  }
}