{
  "contractName": "Ticket",
  "abi": [
    {
      "inputs": [
        {
          "internalType": "address",
          "name": "ownerAddress",
          "type": "address"
        },
        {
          "internalType": "uint256[6]",
          "name": "numbersPlayed",
          "type": "uint256[6]"
        },
        {
          "internalType": "uint256",
          "name": "currentRound",
          "type": "uint256"
        }
      ],
      "stateMutability": "nonpayable",
      "type": "constructor"
    },
    {
      "inputs": [
        {
          "internalType": "uint256",
          "name": "",
          "type": "uint256"
        }
      ],
      "name": "numbers",
      "outputs": [
        {
          "internalType": "uint256",
          "name": "",
          "type": "uint256"
        }
      ],
      "stateMutability": "view",
      "type": "function"
    },
    {
      "inputs": [],
      "name": "owner",
      "outputs": [
        {
          "internalType": "address",
          "name": "",
          "type": "address"
        }
      ],
      "stateMutability": "view",
      "type": "function"
    },
    {
      "inputs": [],
      "name": "round",
      "outputs": [
        {
          "internalType": "uint256",
          "name": "",
          "type": "uint256"
        }
      ],
      "stateMutability": "view",
      "type": "function"
    },
    {
      "inputs": [],
      "name": "getNumbers",
      "outputs": [
        {
          "internalType": "uint256[6]",
          "name": "",
          "type": "uint256[6]"
        }
      ],
      "stateMutability": "view",
      "type": "function"
    },
    {
      "inputs": [],
      "name": "getOwner",
      "outputs": [
        {
          "internalType": "address",
          "name": "",
          "type": "address"
        }
      ],
      "stateMutability": "view",
      "type": "function"
    },
    {
      "inputs": [],
      "name": "getRound",
      "outputs": [
        {
          "internalType": "uint256",
          "name": "",
          "type": "uint256"
        }
      ],
      "stateMutability": "view",
      "type": "function"
    }
  ],
  "bytecode": "0x608060405234801561001057600080fd5b50604051610739380380610739833981810160405281019061003291906102da565b826000806101000a81548173ffffffffffffffffffffffffffffffffffffffff021916908373ffffffffffffffffffffffffffffffffffffffff160217905550816001906006610083929190610093565b508060078190555050505061032e565b82600681019282156100c2579160200282015b828111156100c15782518255916020019190600101906100a6565b5b5090506100cf91906100d3565b5090565b5b808211156100ec5760008160009055506001016100d4565b5090565b6000604051905090565b600080fd5b600073ffffffffffffffffffffffffffffffffffffffff82169050919050565b600061012a826100ff565b9050919050565b61013a8161011f565b811461014557600080fd5b50565b60008151905061015781610131565b92915050565b600080fd5b6000601f19601f8301169050919050565b7f4e487b7100000000000000000000000000000000000000000000000000000000600052604160045260246000fd5b6101ab82610162565b810181811067ffffffffffffffff821117156101ca576101c9610173565b5b80604052505050565b60006101dd6100f0565b90506101e982826101a2565b919050565b600067ffffffffffffffff82111561020957610208610173565b5b602082029050919050565b600080fd5b6000819050919050565b61022c81610219565b811461023757600080fd5b50565b60008151905061024981610223565b92915050565b600061026261025d846101ee565b6101d3565b9050806020840283018581111561027c5761027b610214565b5b835b818110156102a55780610291888261023a565b84526020840193505060208101905061027e565b5050509392505050565b600082601f8301126102c4576102c361015d565b5b60066102d184828561024f565b91505092915050565b600080600061010084860312156102f4576102f36100fa565b5b600061030286828701610148565b9350506020610313868287016102af565b92505060e06103248682870161023a565b9150509250925092565b6103fc8061033d6000396000f3fe608060405234801561001057600080fd5b50600436106100625760003560e01c8063146ca53114610067578063893d20e81461008557806389f915f6146100a35780638da5cb5b146100c15780639f8743f7146100df578063d39fa233146100fd575b600080fd5b61006f61012d565b60405161007c919061022b565b60405180910390f35b61008d610133565b60405161009a9190610287565b60405180910390f35b6100ab61015c565b6040516100b8919061034d565b60405180910390f35b6100c96101a7565b6040516100d69190610287565b60405180910390f35b6100e76101cb565b6040516100f4919061022b565b60405180910390f35b61011760048036038101906101129190610399565b6101d5565b604051610124919061022b565b60405180910390f35b60075481565b60008060009054906101000a900473ffffffffffffffffffffffffffffffffffffffff16905090565b6101646101f0565b600160068060200260405190810160405280929190826006801561019d576020028201915b815481526020019060010190808311610189575b5050505050905090565b60008054906101000a900473ffffffffffffffffffffffffffffffffffffffff1681565b6000600754905090565b600181600681106101e557600080fd5b016000915090505481565b6040518060c00160405280600690602082028036833780820191505090505090565b6000819050919050565b61022581610212565b82525050565b6000602082019050610240600083018461021c565b92915050565b600073ffffffffffffffffffffffffffffffffffffffff82169050919050565b600061027182610246565b9050919050565b61028181610266565b82525050565b600060208201905061029c6000830184610278565b92915050565b600060069050919050565b600081905092915050565b6000819050919050565b6102cb81610212565b82525050565b60006102dd83836102c2565b60208301905092915050565b6000602082019050919050565b6102ff816102a2565b61030981846102ad565b9250610314826102b8565b8060005b8381101561034557815161032c87826102d1565b9650610337836102e9565b925050600181019050610318565b505050505050565b600060c08201905061036260008301846102f6565b92915050565b600080fd5b61037681610212565b811461038157600080fd5b50565b6000813590506103938161036d565b92915050565b6000602082840312156103af576103ae610368565b5b60006103bd84828501610384565b9150509291505056fea2646970667358221220d0ce63531fdff83799a71a5e32c5bd6facf4a746534b5fff51220dd6ab41fb1964736f6c634300080d0033",
  "immutableReferences": {},
  "source": "// SPDX-License-Identifier: MIT\n\npragma solidity >=0.7.0 <0.9.0;\n\ncontract Ticket {\n\n    address public owner;\n    uint[6] public numbers;\n    uint public round;\n\n    constructor (address ownerAddress, uint[6] memory numbersPlayed, uint currentRound) {\n        owner = ownerAddress;\n        numbers = numbersPlayed;\n        round = currentRound;\n    }\n\n    function getNumbers () public view returns (uint[6] memory) {\n        return numbers;\n    }\n\n    function getOwner () public view returns (address) {\n        return owner;\n    }\n\n    function getRound () public view returns (uint) {\n        return round;\n    }\n}",
  "sourcePath": "/home/davide/Scrivania/P2P/LotteryDapp/contracts/Ticket.sol",
  "compiler": {
    "name": "solc",
    "version": "0.8.13+commit.abaa5c0e.Emscripten.clang"
  },
  "schemaVersion": "3.4.7",
  "updatedAt": "2022-07-05T17:50:17.000Z",
  "devdoc": {
    "kind": "dev",
    "methods": {},
    "version": 1
  },
  "userdoc": {
    "kind": "user",
    "methods": {},
    "version": 1
  }
}